S02B00002F686F6D652F7676616C7465722F496E76657273657350656E64656C2F455A532F6275696C642F6103
S30D0800000000000220B19C000873
S30D08000008A8CF0000010000006A
S31508000010DFF804D009F04CBE000002204FF01000B3
S3150800002080F311884FF0020080F31488BFF36F8FB6
S31508000030684680F309884EF00D0E7047EFF3098085
S31508000040A0F1300181F309884FF00101EFF3058231
S31508000050EFF3118320E9FE4F044609F0EBFE204634
S31508000060B0E8FE4F80F3098883F31188704700B51E
S3150800007081B0EFF30580A0F10F0009F0DFFE01B0B3
S3150800008000BDEFF3098CACF1200080F30988044B1E
S31508000090044A05492CE90F002CE90F0070470000B7
S315080000A000000001899E0008AD000008074B00DF2C
S315080000B0EFF3098C0CF1200C8CF30988704704F0D7
S315080000C0FBBDEFF3098C9CE80F001847B100000848
S315080000D02DE9F04385B000F0AFF83E4E00960224B5
S315080000E00194012502954FF08040314620222B4687
S315080000F000F0D6F8384900914FF08009CDF8049001
S31508000100029436484022234600F0CAF8DFF8E48015
S31508000110334F402300930194404629464FF4A26288
S315080001203B4600F015FACDF800900194404621466A
S315080001304FF4A2623B4600F00BFA2A4800F01AF97F
S3150800014030464FF4004100F031F9274B1D70304618
S315080001504FF4004100F032F906F540663046214674
S315080001602A4600F033F9304604212A4600F02EF9D3
S315080001701E4806F06FF96FF00045DFF8609008F545
S3150800018080684FF0804001F0EBFD0446484601F0D8
S31508000190E7FD404601F0E4FD07463046042100F03D
S315080001A01BF93046022100F017F9AC4203D010487B
S315080001B0394607F0D3FD0F4D284600214FF4A262B9
S315080001C001F012FD28460221002201F00DFD254608
S315080001D0D7E700BF000002400008024000040040C4
S315080001E000040240000C004030110020C8D400086A
S315080001F0D0D400080008004010B584B0094B00931D
S315080002004FF415630193084C0294084B039300209E
S3150800021007490246074B03F097FD206803F0BEFD29
S3150800022004B010BDE0070020341100203807002074
S31508000230D1000008D4D4000808B5184801F03EF8E3
S3150800024000BF00BF00BF00BF4FF4C06001F0A0FEB2
S3150800025040F2016001F09CFE40F2026001F098FE57
S3150800026040F2036001F094FE4FF4086001F090FE3E
S315080002704FF4006001F08CFE40F6010001F088FEA4
S3150800028040F6020001F084FE40F6030001F080FE0D
S3150800029040F6880001F07CFE08BD00BF8CD6000839
S315080002A02DE9F04104460F4616469846BDF81C50FF
S315080002B0084602210122334601F06DF838464146C8
S315080002C0324601F0A4F80698022101222B4601F0D5
S315080002D062F806989DF820102A4601F098F82046FC
S315080002E001F0BEF8204600210A460B4601F025F922
S315080002F02046002101F0E2F92046002101F0E0F94C
S31508000300204601F02DF9204601F04DF9204603213B
S3150800031001F0D7FD2046002101F046FB20460221C8
S3150800032001F042FB2046002101F0A7FD20460121ED
S3150800033001F0A3FD20460021012201F065FD2046BB
S3150800034001210A4601F060FD2046002101F0C2FBAA
S315080003502046022101F0BEFB204601F0A3F9204603
S315080003604FF0FF3101F0B6F9204601F035F90020CB
S31508000370BDE8F08110B5044600210A460B4601F097
S31508000380DCF8204601F00FF920464FF0FF3101F066
S31508000390A1F92046002101F091F9204601F0E0F884
S315080003A0204601F019F9002010BD00BF08B50B461C
S315080003B00121002200F0EFFF08BD00BF08B500F0DC
S315080003C0CDFF08BD08B500F0CBFF08BD08B50B4644
S315080003D0002100F0E0FF08BD08B500F0C4FF0030BA
S315080003E018BF012008BD00BF30B585B005460C46CC
S315080003F003210022234600F0CEFF494B9D423CD004
S3150800040003F580639D4245D0A3F500639D426DD1F7
S31508000410082C1ED006D8022C13D0042C15D0012C7B
S3150800042064D10AE0202C1CD002D8102C15D05DE02F
S31508000430402C1AD0802C1CD058E00022394B1A7058
S3150800044054E00122374B1A7050E00222354B1A70DD
S315080004504CE00322334B1A7048E00422314B1A70E1
S3150800046044E005222F4B1A7040E006222D4B1A70E5
S315080004703CE007222B4B1A7038E0012C02D0022CE4
S3150800048004D033E00822274B1A702FE00922254BA7
S315080004901A702BE0013C1F2C28D8DFE804F0101452
S315080004A027182727271C27272727272727202727EF
S315080004B027272727272727272727272727240A22E3
S315080004C0184B1A7012E00B22164B1A700EE00C220B
S315080004D0144B1A700AE00D22124B1A7006E00E220F
S315080004E0104B1A7002E00F220E4B1A700E4C204663
S315080004F000F054FB204600F0A9FB2046012100F03D
S31508000500C7FA204600F0D9FA064B1B7804AA02F867
S31508000510103D2046012100F0F3FB05B030BD00BFB9
S3150800052000040240381100200020014010B5074899
S3150800053000F04DFC054C204600F0B5FB0028FAD02B
S31508000540024800F0B8FB80B210BD00BF0020014091
S315080005502DE9F041044690461F46BDF8186001395A
S31508000560032909D8DFE801F00A020406022506E095
S31508000570042504E0062502E0062500E000252046BD
S3150800058000210A460B4600F0D8FF204601F00BF87A
S315080005902046414601F09EF82046012101F08EF8DA
S315080005A02046002100F0D2FF2046202101F044F821
S315080005B0204600F0D5FF20462946002201F014FB0C
S315080005C020462946062201F0EFF82046294601F082
S315080005D0B7F92046294601F0E7F92046294601F0F1
S315080005E047FA304B9C4235D00BD8A3F500639C42A2
S315080005F024D003F580639C4226D0B4F1804F40D1C5
S3150800060016E0294B9C4231D004D8A3F580639C425E
S3150800061026D036E0254B9C4204D003F580639C42E5
S315080006202AD02EE0224A136843F00103136028E01B
S31508000630204A136843F00103136022E01E4A136838
S3150800064043F0010313601CE01C4A136843F00103DE
S31508000650136016E01A4A136843F00103136010E0AA
S31508000660184A136843F0010313600AE0164A136830
S3150800067043F00103136004E0144A136843F00103CE
S315080006801360384602210022334600F084FE3846BD
S315080006909DF81C10324600F0BAFE204600F09CFF7A
S315080006A0BDE8F081000C0040001400400000014045
S315080006B014000140140000401404004014080040CF
S315080006C0140C004014100040141400401404014097
S315080006D008B54FF471300AF045F808BD08B501466B
S315080006E04FF471300AF0A8F808BD00BF70B504468B
S315080006F01646013903290AD8DFE801F0020406087C
S31508000700002504E0022502E0042500E0062520462F
S3150800071000210A460B4600F010FF204600F043FF72
S315080007202046314600F0D6FF2046012100F0C6FFDC
S315080007302046002100F00AFF2046202100F07CFF19
S31508000740204600F00DFF20462946002201F04CFA0B
S3150800075020462946062201F027F82046294601F0B8
S31508000760EFF82046294601F01FF92046294601F0F0
S315080007707FF9284B9C4235D00BD8A3F500639C42E1
S3150800078024D003F580639C4226D0B4F1804F40D133
S3150800079016E0214B9C4231D004D8A3F580639C42D5
S315080007A026D070BD1D4B9C4204D003F580639C4245
S315080007B02AD070BD1A4A136843F00103136070BD4E
S315080007C0184A136843F00103136070BD164A13688C
S315080007D043F00103136070BD144A136843F0010324
S315080007E0136070BD124A136843F00103136070BDAD
S315080007F0104A136843F00103136070BD0E4A13686C
S3150800080043F00103136070BD0C4A136843F00103FB
S31508000810136070BD000C0040001400400000014049
S31508000820140001401400004014040040140800405D
S31508000830140C004014100040141400401404014025
S3150800084038B540F6020001F0A3FB164C20460221FB
S3150800085040F20312FFF74AFF2046032140F2031233
S31508000860FFF744FF2046042140F20312FFF73EFF3C
S315080008700D48082101F07AFB0C4D2846022100227A
S315080008804FF4604300F087FD284602214FF460428A
S3150800089000F0BDFD204600F09FFE054809F062FF06
S315080008A038BD00BF0008004030380240000C024046
S315080008B080F803000000000038B50BF081FF0EA396
S315080008C0D3E900230BF0E2FF00220D4B0BF0DEFF0D
S315080008D00CF0B4FA04460B4D28460221224601F0D4
S315080008E083F928460421224601F07EF92846062186
S315080008F0224601F079F938BD427B09ED253470406E
S315080009000000703F00080040024A136843F02003C5
S31508000910136070470C440040034A136813F0400FF5
S31508000920FBD0024B18607047004400400444004066
S31508000930014B1868C0B2704704440040024B18685F
S31508000940C0F34010704700BF0044004010B540F6A1
S31508000950030001F01DFB124C204600210A460B46F7
S3150800096000F0EBFD204600F01EFE20464FF0FF315A
S3150800097000F0B0FE2046002100F0A0FE204600F060
S31508000980EFFD204600F028FE45F601500021054BF4
S31508000990C3E9000100200021034BC3E9000110BD93
S315080009A0000C0040481100204011002008B50248FC
S315080009B001F0D6F9002108BD000C0040014BD3E92F
S315080009C00001704740110020014BD3E90001704730
S315080009D0481100202DE9704F0646FFF7E7FF044649
S315080009E0FFF7F2FF82468B464FF000097002F10DC1
S315080009F04B0143EAD0634201121A63EB01039219D1
S31508000A0043EB0903990141EA92619001801A61EB6F
S31508000A100301801941EB090152465B460CF07EFA48
S31508000A20804642F20F739E4206D90A48A0FB06305A
S31508000A30400B002103F0EAF900254FF00009FFF703
S31508000A40B5FF001B61EB0501494508BF4045F6D3D4
S31508000A50BDE8708F5917B7D1092910B50BD80469A5
S31508000A6001EB410107238B4024EA030302FA01F153
S31508000A701943016110BD0A3901EB4101C468072316
S31508000A808B4024EA03038A4043EA0201C16010BD91
S31508000A9010B50022134601FA02F403321E2A43EA6D
S31508000AA00403F8D10361002201FA02F40332182A7A
S31508000AB043EA0403F8D1C36010BD836843F0010319
S31508000AC083607047034B1A6822F44032104318605B
S31508000AD0704700BF04230140024B1A681043186090
S31508000AE0704700BF0423014083680A4323F07C5300
S31508000AF0134383607047836823F0405383607047CD
S31508000B0083680A4323F47C1313438360704783681E
S31508000B1023F4401383607047436823F040731943F6
S31508000B2041607047436843F0806343607047436899
S31508000B3023F08063436070470068C0F34010704735
S31508000B40036823F0200303607047836843F48063D7
S31508000B5083607047836823F4806383607047836883
S31508000B6043F4007383607047836823F400738360DB
S31508000B707047006800F0010070470000024B1A68D1
S31508000B8042F400021A60704704230140024B1A68B7
S31508000B9022F400021A60704704230140836823F098
S31508000BA0010383607047436843F40003436070475A
S31508000BB0436823F4000343607047436843F48003A3
S31508000BC043607047436823F48003436070470829ED
S31508000BD008DC436843F4006343604368013943EA29
S31508000BE0413141607047436823F4006343607047AE
S31508000BF0436843F4805343607047436823F4805343
S31508000C004360704710B50446FFF781FF636843F4F5
S31508000C108063636010BD436823F480634360704754
S31508000C20436823F40073436070474368122923F02E
S31508000C301F0398BF0B434360436843F40073436044
S31508000C407047436843F4807343607047436823F4EE
S31508000C50807343607047436843F08003436070477E
S31508000C60436823F0800343607047436843F04003BA
S31508000C7043607047436823F0400343607047436806
S31508000C8043F0200343607047436823F02003436022
S31508000C907047836843F4006383607047836823F46E
S31508000CA00063836070470068C0F3400070470068BF
S31508000CB0C0F380007047C06C7047013903290BD810
S31508000CC0DFE801F002040608C06B7047006C704745
S31508000CD0406C7047806C704700207047836843F00B
S31508000CE0020383607047836823F0020383607047BA
S31508000CF0C1F30B0141627047C1F30B018162704772
S31508000D0010292DE9F04339D800236FF03B041D461E
S31508000D101E461F465FFA83FC0CF101085FFA88F845
S31508000D20884525D8B8F1060F07D812F8039003EBC3
S31508000D30830809FA08F845EA0805ACF10608B8F187
S31508000D40050F07D812F8039004F11E0809FA08F8E7
S31508000D5046EA0806ACF10C0CBCF1050F05D812F8EA
S31508000D6003C00CFA04FC47EA0C0701330534D1E743
S31508000D70013947EA0157C76206634563BDE8F08350
S31508000D80042970B513DC00231C46013BDD43EDB294
S31508000D908D4208D25518EE5C03EB8305143506FA26
S31508000DA005F52C43F1E7013944EA0154846370BD23
S31508000DB0013903290AD8DFE801F00204060842616E
S31508000DC0704782617047C2617047026270478368E4
S31508000DD043F0804300F10802836013685B00FCD48B
S31508000DE07047836843F4800300F108028360136840
S31508000DF05B02FCD47047836843F480738360704752
S31508000E00836823F48073836070470000062828D817
S31508000E10DFE800F0041D22090E131800114B1A68AA
S31508000E2042F480121CE00F4B1A6842F4002217E0C5
S31508000E300C4B1A6842F4802212E00A4B1A6842F4F4
S31508000E4000320DE0074B1A6842F4803208E0054B81
S31508000E501A6842F4800203E0024B1A6842F4001250
S31508000E601A6070470C380240062828D8DFE800F0D8
S31508000E70041D22090E131800114B1A6842F48052F9
S31508000E801CE00F4B1A6842F4006217E00C4B1A6814
S31508000E9042F4806212E00A4B1A6842F400720DE0CE
S31508000EA0074B1A6842F4807208E0054B1A6842F448
S31508000EB0804203E0024B1A6842F400521A607047F7
S31508000EC00C380240062828D8DFE800F0041D22095D
S31508000ED00E131800114B1A6822F480521CE00F4BAF
S31508000EE01A6822F4006217E00C4B1A6822F4806232
S31508000EF012E00A4B1A6822F400720DE0074B1A68D2
S31508000F0022F4807208E0054B1A6822F4804203E056
S31508000F10024B1A6822F400521A6070470C380240D5
S31508000F20062828D8DFE800F0041D22090E13180049
S31508000F30124B1868C0F300107047104B1868C0F3BE
S31508000F40C00070470D4B1868C0F3800070470B4B04
S31508000F501868C0F340007047084B186800F0010095
S31508000F607047064B1868C0F380107047034B186823
S31508000F70C0F3401070470020704700BF0C3802408D
S31508000F80024B1A6842F400021A6070470C38024095
S31508000F90024B1868C0F3C010704700BF0C380240F7
S31508000FA0062822D8DFE800F004171C090E101500E1
S31508000FB00F4B1868C0F3406070470D4B1868C0F3B4
S31508000FC0404070470A4B00E00A4B1868C0F34000DF
S31508000FD07047094BF9E7064B1868C0F3407070472D
S31508000FE0034B1868C0F3C06070470020704700BF05
S31508000FF000380240703802407438024010B5044682
S315080010002046FFF7CDFF0028FAD010BD032809D0E7
S3150800101004280ED090B90A4B1B68C3F38103022B30
S31508001020F9D17047064B1B68C3F38103012BF9D12D
S315080010307047034B1B6813F00C0FFAD1704700BFBB
S3150800104008380240062822D8DFE800F004171C09F1
S315080010500E1012000E4B1A6842F0807216E00C4B06
S315080010601A6842F4803211E0094B02E0094B00E0AD
S31508001070094B1A6842F0010208E0054B1A6842F06B
S31508001080805203E0024B1A6842F080621A60704789
S31508001090003802407038024074380240062822D8C8
S315080010A0DFE800F004171C090E1012000E4B1A6830
S315080010B022F0807216E00C4B1A6822F4803211E096
S315080010C0094B02E0094B00E0094B1A6822F00102BD
S315080010D008E0054B1A6822F0805203E0024B1A68B2
S315080010E022F080621A607047003802407038024069
S315080010F074380240024B1A6842F400221A6070479C
S3150800110000380240024B1A6822F400221A6070471F
S3150800111000380240032802D0052805D07047054B41
S315080011201A6842F4802203E0034B1A6842F004026C
S315080011301A6070470038024070380240032802D00F
S31508001140052805D07047054B1A6822F4802203E06B
S31508001150034B1A6822F004021A60704700380240EE
S315080011607038024003F007031B0702F00F0243EA38
S31508001170026201F0030142EA0142C0F30800024B91
S3150800118042EA80121A60704788380240074B1A688C
S3150800119022F07F4222F47C02090422F4604241EAEA
S315080011A0002022F0FF0202431A6070478C38024082
S315080011B0034B1A6822F0030210431860704700BFF9
S315080011C008380240034B1A6822F4800242EA80502B
S315080011D01860704704380240034B1A6822F46042CC
S315080011E042EA40301860704708380240034B1A68D4
S315080011F022F4E05242EA802018607047083802401C
S31508001200034B1A6822F0F00242EA00101860704791
S3150800121008380240034B1A6822F4F81242EA0040E2
S31508001220186070470838024010B5029C00F03F006D
S31508001230C1F3080103F00F0340EA8110520840EA9F
S315080012400360012C02F1FF3303F0030398BF022465
S3150800125040EA034004F00704024B40EA04701860B1
S3150800126010BD00BF0438024010B503F00F03029CFE
S315080012701B0643F4800300F03F005208012C43EAA2
S315080012800003C1F3080102F1FF3202F0030298BF1E
S31508001290022443EA811343EA024304F00704024A9C
S315080012A043EA0473136010BD04380240024B186801
S315080012B0C0F38100704700BF0838024037B50446BE
S315080012C00420FFF7BFFE0420FFF798FE0020FFF773
S315080012D06FFF0320FFF7B6FE0320FFF78FFEE07BC4
S315080012E000B1012000F0AAFE207BFFF789FF607B92
S315080012F0FFF77CFFA07BFFF76FFFA5796188207851
S31508001300227963790095FFF7AFFF104B1A6842F010
S3150800131080721A600020FFF771FEA06800F0E2FDF7
S315080013200220FFF745FF0020FFF770FE084A2369F1
S315080013301360084A63691360A269074B04201A60A0
S3150800134003B0BDE83040FFF7A9BE00BF0038024031
S31508001350880200208C0200209002002081617047DC
S31508001360090481617047006908407047436921EAAA
S3150800137003020B4042EA034383617047006980B267
S3150800138070474161704741F48033C361C161C361ED
S31508001390C369C36970472DE9F0410668C56800242A
S315080013A043FA04F7FF0711D567004FF0030C0CFA50
S315080013B007FC6FEA0C0C01FA07F80CEA06060CEAB9
S315080013C0050502FA07F746EA08063D430134102CDC
S315080013D0E6D10660C560BDE8F081012941680CBF09
S315080013E01943994370B541608468002143FA01F5B1
S315080013F0ED0707D54D000326AE4024EA060402FA97
S3150800140005F52C4301311029F0D1846070BDF0B583
S31508001410056A446A002342FA03F6F70707D59E00D1
S315080014200F27B74025EA070501FA06F635430133C3
S31508001430082BF0D1002303F1080642FA06F6F60750
S3150800144007D59E000F27B74024EA070401FA06F6D7
S3150800145034430133082BEED105624462F0BD000027
S315080014601C4B984228D00DD8A3F5006398421DD08E
S3150800147003F5806398421CD0B0F1804F29D14FF410
S31508001480806024E0144B98421CD004D8A3F58063EE
S31508001490984214D07047114B984204D003F58063E4
S315080014A0984212D070474FF4906010E040F2014025
S315080014B00DE040F202400AE040F2034007E040F245
S315080014C0044004E040F2054001E040F2814000F0AB
S315080014D07CBD7047000C004000140040000001402D
S315080014E0C3681943C1607047C36823EA0101C16034
S315080014F0704700000269C36813400B400BD080296F
S315080015000BD801D020290AD1064B20F48060C31AD3
S3150800151058425841704718467047002070470120C6
S31508001520704700BF0000014003690B420CBF002052
S3150800153001207047C9430161704710B50468134319
S3150800154024F45C7419430C43046010BD036823F447
S3150800155040730360036801F440710B4303607047EE
S31508001560036843F0800303607047036823F0800331
S3150800157003607047036823F060030360036801F0A3
S3150800158060010B4303607047036823F01003036090
S315080015907047036843F0100303607047036843F01D
S315080015A0080303607047036823F008030360704765
S315080015B0036823F0040303607047036843F00403D9
S315080015C003607047036823F00203036070470368EB
S315080015D043F0020303607047036843F001030360A6
S315080015E07047036823F0010303607047054B20F436
S315080015F080629A4204D1436801F4FE41194341606E
S31508001600704700BF00000140054B20F480629A42F3
S3150800161005D1436801F4FE4123EA010141607047A0
S3150800162000000140436843F0800343607047436805
S3150800163023F0800343607047436823F070034360D8
S315080016404368194341607047436823F008034360C1
S315080016507047436843F0080343607047044B20F41F
S3150800166080629A4203D1436843F00403436070479B
S3150800167000000140044B20F480629A4203D143687B
S3150800168023F004034360704700000140044B20F434
S3150800169080629A4203D1436843F00103436070476E
S315080016A000000140044B20F480629A4203D143684B
S315080016B023F00103436070470000014081627047D0
S315080016C0034B20F480629A4208BF0163704700BF4B
S315080016D000000140C1627047062916D8DFE801F00C
S315080016E0041508150D151100836943F0800302E0FF
S315080016F0836943F4004383617047C36943F08003F9
S3150800170002E0C36943F40043C3617047062916D84B
S31508001710DFE801F0041508150D151100836923F09B
S31508001720800302E0836923F4004383617047C36939
S3150800173023F0800302E0C36923F40043C3617047C2
S31508001740062916D8DFE801F0041508150D1511004D
S31508001750836943F0040302E0836943F48063836189
S315080017607047C36943F0040302E0C36943F4806326
S31508001770C3617047062916D8DFE801F00415081575
S315080017800D151100836923F0040302E0836923F42D
S31508001790806383617047C36923F0040302E0C36969
S315080017A023F48063C3617047062900F2C880DFE826
S315080017B011F00700C6003600C6006800C60096008D
S315080017C0836923F00303836183698361836923F053
S315080017D070038361072A00F2B280DFE802F033045F
S315080017E0080C1014181C836943F0100347E083693A
S315080017F043F0200343E0836943F030033FE0836905
S3150800180043F040033BE0836943F0500337E08369C4
S3150800181043F0600333E0836943F070032FE0836984
S3150800182023F44073836183698361836923F4E04306
S315080018308361072A00F28380DFE802F004060A0EB5
S3150800184012161A1E83691AE0836943F4805316E058
S31508001850836943F4005312E0836943F440530EE06E
S31508001860836943F480430AE0836943F4A04306E0AE
S31508001870836943F4C04302E0836943F4E043836128
S315080018807047C36923F00303C361C369C361C369AE
S3150800189023F07003C361072A51D8DFE802F0320447
S315080018A0080C1014181CC36943F0100346E0C369FA
S315080018B043F0200342E0C36943F030033EE0C369C6
S315080018C043F040033AE0C36943F0500336E0C36986
S315080018D043F0600332E0C36943F070032EE0C36946
S315080018E023F44073C361C369C361C36923F4E04346
S315080018F0C361072A23D8DFE802F004060A0E121687
S315080019001A1EC3691AE0C36943F4805316E0C36913
S3150800191043F4005312E0C36943F440530EE0C3692D
S3150800192043F480430AE0C36943F4A04306E0C3696D
S3150800193043F4C04302E0C36943F4E043C36170471C
S31508001940062916D8DFE801F0041508150D1511004B
S31508001950836943F0080302E0836943F40063836103
S315080019607047C36943F0080302E0C36943F40063A0
S31508001970C3617047062916D8DFE801F00415081573
S315080019800D151100836923F0080302E0836923F427
S31508001990006383617047C36923F0080302E0C369E3
S315080019A023F40063C3617047062915D8DFE801F000
S315080019B0041408140C141000036A23F002030AE046
S315080019C0036A23F0200306E0036A23F4007302E0A7
S315080019D0036A23F4005303620B4B20F480629A4295
S315080019E011D1032907D0052909D001290BD1036A8A
S315080019F023F0080306E0036A23F0800302E0036A83
S31508001A0023F400630362704700000140062915D8D5
S31508001A10DFE801F0041408140C141000036A43F0FC
S31508001A2002030AE0036A43F0200306E0036A43F46C
S31508001A30007302E0036A43F4005303620B4B20F47D
S31508001A4080629A4211D1032907D0052909D00129B4
S31508001A500BD1036A43F0080306E0036A43F08003E8
S31508001A6002E0036A43F40063036270470000014022
S31508001A70062915D8DFE801F0041408140C14100020
S31508001A80036A43F001030AE0036A43F0100306E021
S31508001A90036A43F4807302E0036A43F480530362E3
S31508001AA00B4B20F480629A4211D1032907D00529ED
S31508001AB009D001290BD1036A43F0040306E0036A3F
S31508001AC043F0400302E0036A43F48063036270470D
S31508001AD000000140062915D8DFE801F004140814AF
S31508001AE00C141000036A23F001030AE0036A23F0CA
S31508001AF0100306E0036A23F4807302E0036A23F402
S31508001B00805303620B4B20F480629A4211D1032959
S31508001B1007D0052909D001290BD1036A23F004034C
S31508001B2006E0036A23F0400302E0036A23F48063B5
S31508001B300362704700000140144B20F480629A4209
S31508001B4023D1062921D8DFE801F004080C1014185F
S31508001B501C00436843F4807316E0436843F400733B
S31508001B6012E0436843F480630EE0436843F400637D
S31508001B700AE0436843F4805306E0436843F400539D
S31508001B8002E0436843F48043436070470000014025
S31508001B90144B20F480629A4223D1062921D8DFE823
S31508001BA001F004080C1014181C00436823F4807311
S31508001BB016E0436823F4007312E0436823F4806355
S31508001BC00EE0436823F400630AE0436823F4805375
S31508001BD006E0436823F4005302E0436823F4804395
S31508001BE0436070470000014006290CD8DFE801F081
S31508001BF0040B060B080B0A004263704782637047A2
S31508001C00C263704702647047044B20F480629A42AC
S31508001C1003D1436C43F4004343647047000001401A
S31508001C20044B20F480629A4203D1436C23F40043A8
S31508001C304364704700000140044B20F480629A42D6
S31508001C4003D1436C43F4804343647047000001406A
S31508001C50044B20F480629A4203D1436C23F48043F8
S31508001C604364704700000140044B20F480629A42A6
S31508001C7003D1436C43F400534364704700000140AA
S31508001C80044B20F480629A4203D1436C23F4005338
S31508001C904364704700000140044B20F480629A4276
S31508001CA003D1436C43F480534364704700000140FA
S31508001CB0044B20F480629A4203D1436C23F4805388
S31508001CC04364704700000140044B20F480629A4246
S31508001CD003D1436C43F4006343647047000001403A
S31508001CE0044B20F480629A4203D1436C23F40063C8
S31508001CF04364704700000140044B20F480629A4216
S31508001D0003D1436C43F48063436470470000014089
S31508001D10044B20F480629A4203D1436C23F4806317
S31508001D204364704700000140044B20F480629A42E5
S31508001D3002D1436C19434164704700BF000001405B
S31508001D40044B20F480629A4202D1436C19434164E1
S31508001D50704700BF0000014043691943416170475D
S31508001D60406A704741627047032924D8DFE801F0CA
S31508001D70020A131B836923F0F0038361836943EA2C
S31508001D80021206E0836923F470438361836943EA98
S31508001D90023282617047C36923F0F003C361C369E5
S31508001DA043EA021206E0C36923F47043C361C369B8
S31508001DB043EA0232C2617047032924D8DFE801F0FA
S31508001DC0020A131B836923F00C038361836943EAC0
S31508001DD0820206E0836923F440638361836943EAE8
S31508001DE0822282617047C36923F00C03C361C36909
S31508001DF043EA820206E0C36923F44063C361C36908
S31508001E0043EA8222C261704701F0FD03012B02F00A
S31508001E10030204D1531E012B98BF82F00302032943
S31508001E2022D8DFE801F002091219836923F00303B7
S31508001E30836183691A4306E0836923F440738361E7
S31508001E40836943EA022282617047C36923F0030368
S31508001E50C361C3691A4306E0C36923F44073C361C7
S31508001E60C36943EA0222C2617047036A89000122F4
S31508001E7002FA01F10B4303627047036A89000122E3
S31508001E8002FA01F123EA010303627047836823F427
S31508001E9070638360836843EA0121816070478368C1
S31508001EA023F440538360836843EA013181607047B5
S31508001EB0836811B143F4004301E023F400438360CF
S31508001EC07047836823F0070383608368194381603A
S31508001ED07047836823F070038360836819438160C1
S31508001EE070470000034B1A6822F007021043186077
S31508001EF0704700BF003C0240064B1A6842F0004299
S31508001F001A60054A43F80C2C02F1883243F80C2C67
S31508001F10704700BF103C024023016745024B1A6810
S31508001F2042F000421A607047103C0240024B1A68A1
S31508001F3042F040021A6070470C3C0240024B1A6895
S31508001F4042F001021A6070470C3C0240024B1A68C4
S31508001F5022F480321A6070470C3C0240024B1B6820
S31508001F60DB03FBD4704700BF0C3C024003681943EF
S31508001F7001607047036823EA01010160704703683E
S31508001F80194301607047036823EA0101016070473D
S31508001F90430903F1804303F50E3300F01F001A6866
S31508001FA0012101FA00F0104318607047430903F154
S31508001FB0804303F50E3300F01F001A68012101FA69
S31508001FC000F022EA000018607047430903F18043D5
S31508001FD003F50E3300F01F001A68012101FA00F01C
S31508001FE002431A601A6822EA00001860704743091B
S31508001FF003F1804303F50E3300F01F001A68012130
S3150800200001FA00F0104318607047430903F1804352
S3150800201003F50E3300F01F001A68012101FA00F0DB
S3150800202022EA000018607047034B1A6822F4C002BF
S3150800203042EA4050186070470838024020B9064BFB
S315080020401A6842F4804205E0012804D1024B1A6856
S3150800205002F480421A6070470070004000F054BFD6
S3150800206001207047406910B40468A468A4465DF866
S31508002070044B60472DE9F84F44692746914657F8BF
S31508002080788B38460D4602F0B9F8626E0023C4F81C
S315080020909030AAB9D9F800302E4653B1D8F8043092
S315080020A02046984706F8010BD9F80030721B9A4269
S315080020B0F4D33846002502F0A5F82846BDE8F88F7F
S315080020C09B46DA4601F010FE012604F1700811E07D
S315080020D0226EA36D9B5C2B70236E626E0133934256
S315080020E0236608BFC4F860A0A36E013B0D46A3662D
S315080020F00BF1010BD9F800309B4505F1010118D207
S31508002100A36E002BE4DCC4F88C60404602F086F827
S3150800211008B9C4F89060D4F89030002BEAD00023B0
S31508002120C9F800B06FF00305C4F89030C4F88C30D5
S3150800213000E0002501F0F2FD384602F063F8284673
S31508002140BDE8F88F2DE9F84F4469D2F800B0274664
S31508002150904657F8386B38460D4602F04FF8636AD2
S31508002160002222659BB99345C8BFAB4408DD336896
S315080021702978204698470028F9D001355D45F6D1DB
S315080021803846002502F03EF82846BDE8F88F01F0EB
S31508002190ABFDBBF1000F1EDD4FF0010904F1300A5B
S315080021A0E369626AA16A01339A4208BF00238A4238
S315080021B005F101001BD0E269511CE161A1692D7886
S315080021C08D54E361A36ABBF1010B03F10103A3621A
S315080021D001D00546E4E70025F3682046984701F054
S315080021E09DFD384602F00EF82846BDE8F88FF368DC
S315080021F0C4F84C9020469847E36C23B9236D83B9FD
S3150800220028460546CCE7636D5B446365504602F095
S3150800221005F808B9C4F85090636DCBEB0303636502
S31508002220ECE7D8F800300022CBEB0303C8F80030FF
S315080022306FF003052265E264CEE700BF2DE9F041A1
S3150800224044696FF4807001442668102900F285807D
S31508002250DFE801F01D2A30567783838383838383DF
S3150800226083838383090019680F2976D91021196099
S31508002270636E1360002B77D0A36E5360606A90601C
S3150800228000286ED0A36AD3600020BDE8F0811968E3
S31508002290072962D90C3494E80300082482E803006D
S315080022A000201C60BDE8F081636A002B66D100201F
S315080022B0BDE8F081636A002BF9D004F13805284699
S315080022C001F09CFF01F010FDA36A002B06DD002338
S315080022D0A3623269E36120462362904700221346CF
S315080022E0B668204640F20311B047E36C002B67D16D
S315080022F001F014FD284601F085FF0020BDE8F081B5
S31508002300636E002BD3D004F17807384601F076FFC8
S3150800231001F0EAFCD4F88C30002B5AD10025B668B7
S31508002320A5662A462B464FF48271E5652046256642
S31508002330B04701F0F3FC384601F064FF2846BDE8D3
S31508002340F081636E93B9636A002BB0D001232365CD
S3150800235004F1300001F068FFA9E76FF01500BDE849
S31508002360F081D060BDE8F081536087E70123C4F8A7
S31508002370903004F1700001F057FFE4E704F13808E3
S31508002380404601F03BFF002501F0AEFC012704F1B1
S31508002390300606E0E76401F041FF002808BF6FF049
S315080023A00305636D3046002BF4D1A36A002BF1DCDC
S315080023B001F0B4FC404601F025FF2846BDE8F0814F
S315080023C00123236504F1300001F02EFF0023E364A6
S315080023D08EE70123C4F8903004F1700001F024FF61
S315080023E00023C4F88C3099E7826E436E9A4210B483
S315080023F00DDAC36D826D5C1CC465D154C26D436E23
S315080024009A4204BF0023C365836E01338366D0F8FE
S315080024108C3013B95DF8044B70470023C0F88C3034
S315080024205DF8044B703001F0FFBE00BF836A002BD5
S3150800243070B50446066827DD00250DE0236A626A42
S3150800244001332362236A934208BF2562A36A013BCC
S31508002450A362A36A002B17DD226AA1693368895C27
S31508002460204698470028E9D1A16A636AE26A5B1A9E
S3150800247093420FDBE36C6BB10023E36404F1300095
S31508002480BDE8704001F0D0BE336920469847E36C3A
S31508002490002BF1D170BD00BF38B5436933B9426A24
S315080024A00446A2B9636E13B90123636138BD0023DC
S315080024B004F178052846C4F88C30C4F8903001F049
S315080024C099FE294604F1700001F0A4FEECE700F13C
S315080024D038050365C3644365284601F08BFE294623
S315080024E004F1300001F096FE636A002BB8BF03338F
S315080024F09B10E362636E002BD6D0D8E743690522AA
S31508002500012083E80500704703685B69002099602D
S31508002510704700BFF0B4446940F28126B142A06812
S315080025200AD11B68082B0AD192E8030084E8030045
S3150800253000231846F0BC7047F0BC00F0A9BD6FF048
S315080025401503F6E7F0B4446940F20127B942A068DA
S315080025500CD11D461B68072B0BD994E803000823EA
S3150800256082E8030000202B60F0BC7047F0BC00F046
S315080025707FBD6FF01500F7E74369986800F070BDF6
S315080025802DE9F04F92464769DAF80030D7F8088007
S3150800259000249C4283B00E464FF0010924D202ADB6
S315080025A0404645F8049D0DF103012A4600F026FD34
S315080025B0002860D19DF8033033557A68110704F175
S315080025C0010B0CD40A2B2AD014D90D2B20D07F2B23
S315080025D012D104F1FF3B002C49D053073ED45C4688
S315080025E0DAF800309C42DAD30020CAF8004003B07B
S315080025F0BDE8F08F082BECD05307F0D52A464046A5
S315080026000DF10301CDF804905C4600F0E5FCE7E720
S315080026109407E4D4D00744BF0A238DF80330510742
S3150800262009D53B68DA07404610D502232A461449DD
S31508002630019300F0D1FC5E449DF8033006F8013C96
S315080026400020CAF800B003B0BDE8F08F01230DF1F1
S3150800265003012A46019300F0BFFCECE703232A4650
S315080026604046084901935C4600F0B6FCB8E74FF0CF
S31508002670000B5C46B4E7CAF8004003B0BDE8F08F2B
S31508002680ACD60008A8D600082DE9F04FD0F814906B
S315080026901668D9F808A093B0002390461C460F4642
S315080026A001939B466FF0080CB44204F101041FD253
S315080026B017F8015B0A2D1FD0019B0DF1480E9E44A9
S315080026C001333E2B504602A901AA0EF8405C01933D
S315080026D001D8B442E8D100F07FFC8446C8B9D8F8DE
S315080026E00060019B0190B4429B4404F10104DFD3CE
S315080026F0604613B0BDE8F08FD9F80030DB07DBD5AC
S31508002700019B12AA1A444FF00D01013302F8401C2E
S31508002710D3E76046C8F800B013B0BDE8F08F00BF35
S315080027200120704708B540F28113994205D1044942
S31508002730044801F057F9002008BD6FF0150008BDE0
S3150800274030D70008A0D8000800B583B00DF10700FF
S3150800275000F06AFB9DF8070003B05DF804FB00BFB4
S3150800276008B5084600F048FB012008BD044A13686E
S31508002770591C116003B17047024801F069BF00BFD8
S3150800278090110020A83B0020FFF7F0BF08B50368AA
S31508002790586943681B689847002008BD83685A68CB
S315080027A013681B06FCD551600120704783685A6878
S315080027B013689B06FCD55068C0B270478368596A8F
S315080027C05A6829B901215962D36843F08003D36056
S315080027D0704700BF8368596A5A6829B1002159624F
S315080027E0D36823F08003D360704700BF70B5946840
S315080027F01546A26BE36B66689A4211D0E36BE16BF0
S315080028006A680133102B214408BF0023926891F8A7
S315080028102810E36328469047A26BE36B9A42EDD1F2
S31508002820636A326873B1130600D470BD6B682846B4
S315080028305B689847636A002BF7D0F36843F0800318
S31508002840F36070BD70BD00BF70B58C68656801F037
S31508002850F9FB2B6899061AD52E1D0120A36B326841
S31508002860E16B0133102B08BF0023994206D0A16BF8
S315080028702144D2B281F828200320A3632B689A0644
S31508002880ECD49A0544BF23F400732B6070BD190677
S3150800289005D5EA6822F08002EA600320F1E7012004
S315080028A0EFE700BF2DE9F84F0E468B78F27884687B
S315080028B02749676851F82350082A804641D04FF0C7
S315080028C0000B7278234B206953F822A04FF00009B9
S315080028D0C4F83C90C4F8389007F044FF606907F0E4
S315080028E041FFA06907F03EFFE06907F03BFF206A59
S315080028F007F0C2FF4BEA05053278174B45F00C0185
S315080029003846F96053F82210C7F810A007F0E0FF20
S3150800291045F400521546012108F10C0342F00C0259
S3150800292045F02C05FA609E42FD60796118BF96E86D
S315080029300300C4F8249018BF83E803000120BDE80B
S31508002940F88F002B0CBF4FF0000B4FF4805BB8E7F5
S3150800295054D7000844D7000868D7000810B540F2D5
S315080029608114A1420BD11968072908D911460822F2
S315080029701A60FFF797FF012801D1002010BD6FF0FC
S31508002980150010BD30B544696368A5681B6885B035
S3150800299020469847636A9BB10D4BA868E96800937F
S315080029A005F15C0205F14003019202932246094BA8
S315080029B001F01EFBE86D01F02FFBA86801F03EFB55
S315080029C0204604F10C0105B0BDE83040FFF76ABFA8
S315080029D0ED27000849280008144B15491B68F0B56F
S315080029E0A1FB0331134D144C890C41F2883E2B6828
S315080029F02268704503F101030746A8BF77469A1A6D
S31508002A00B2FBF1F22B68266801339B1BB3FBF1F38B
S31508002A109B1A44BF03F51C531033BB42F2DB002B51
S31508002A2008BF0123C01A0028E1DCF0BDAC4600202F
S31508002A3083DE1B4314E000E018E000E0014B024A85
S31508002A401A60FEE70CED00E00400FA050020704766
S31508002A50811C38B532D0421C2AD0C31C16D01D4D55
S31508002A60AB69441CBBB15A691868042190471A4BD4
S31508002A701A4903EB4413AB61AA690C60134688B183
S31508002A805369106805219847012038BD114DAB6977
S31508002A900024002BE7D1104B104A03EB4413AB611B
S31508002AA0AB6914605A69186804219047012038BD3B
S31508002AB00A4B1868002808DD013838BD054A074B57
S31508002AC0002118609161012038BD00D038BD6FF033
S31508002AD0020038BD88010020F81100208805002072
S31508002AE0811C15D0421C0DD0C31C09D001300E4BD9
S31508002AF00E490F4A03EB401310604B6101207047E3
S31508002B000020F4E70A4B1868002808DD01387047EA
S31508002B10064A074B0021186051610120704700D012
S31508002B2070476FF00200FBE7F811002088010020CB
S31508002B308C050020024B9B6918681B69184700BF63
S31508002B408801002062B170B5064E0D461446B36979
S31508002B5018681B699847013C05F8010BF7D170BD49
S31508002B60704700BF88010020024B9B6918681B69E3
S31508002B70184700BF88010020024B9B691868DB686C
S31508002B80184700BF8801002062B170B5064E0D4691
S31508002B901446B36915F8011B1868DB689847013CA9
S31508002BA0F7D170BD704700BF8801002062B170B5CB
S31508002BB0064E0D461446B36918681B699847013CCA
S31508002BC005F8010BF7D170BD704700BF88010020DA
S31508002BD00EB4002003B070472DE9F04FDFF8E4800B
S31508002BE0364AD8F80030956985B0002B5BD010239B
S31508002BF0EFF31182194681F31188314F0192286843
S31508002C00EB68242198472868EB684F219847D8F83D
S31508002C100030002B4EDDDFF8B0904FF04F0A00264B
S31508002C2019F8011F2868EB680C0901F00F013C5DD3
S31508002C3017F801B0214698472868EB68594698471F
S31508002C40D8F800105C44013654448E425FFA84FA80
S31508002C50E6DB4FEA1A160AF00F042868EB68232108
S31508002C6098472868B95DEB6898472868395DEB6826
S31508002C70984706E000F030F9C0B99DF80F302D2BC3
S31508002C80BDD028682B69984703462B2B4FF00101C6
S31508002C900DF10F008DF80F30ECD10023C8F8003085
S31508002CA0019B83F3118805B0BDE8F08F034A012321
S31508002CB05364F2E70F240426CFE700BF88010020FB
S31508002CC0C0D700083C120020931100200EB400B5AE
S31508002CD09DF80430082B04D05DF804EB002003B0FF
S31508002CE07047FFF779FF5DF804EB002003B07047E3
S31508002CF00D290CD0084B1A6810B4084C501C0A2928
S31508002D00A154186004D0642802D05DF8044B7047BB
S31508002D105DF8044BFFF760BF3C12002094110020B9
S31508002D205AB170B506460D461446304615F8011BCD
S31508002D30FFF7DEFF013CF8D170BD70472DE9F04181
S31508002D400C4C0D4F636B0D4E4FF0FF309847636B7D
S31508002D5005466FF0020098476369094809490A4A17
S31508002D605F609E60D86019615A612846636BBDE84A
S31508002D70F041184788010020212D0008452B00083E
S31508002D80F12C0008352B0008CD2C00082DE9F04160
S31508002D900C4C0D4F636B0D4E4FF0FF309847636B2D
S31508002DA005466FF0020098476369094809490A4AC7
S31508002DB05F609E60D86019615A612846636BBDE8FA
S31508002DC0F041184788010020892B0008AD2B000820
S31508002DD0792B0008692B0008D12B0008044B1878BA
S31508002DE000B17047034A0121526B1970104700BFA2
S31508002DF0381200208801002010B50A4C6369014684
S31508002E006BB11868DB689847636C064A03B910BD4E
S31508002E1000231846BDE81040536400F071B8A36952
S31508002E20EFE700BF88010020054A536910B504463C
S31508002E3023B118681B699847207010BD9369F8E795
S31508002E408801002070B51C4A1C4C002344F8232036
S31508002E500133402B1949F9D1194D0D60194B1A4EFA
S31508002E601A480B6400258E642B46CD648D6340F8A2
S31508002E7023200133082BFAD1002303F1080101337B
S31508002E80082B40F82120F8D1114B124A22636FF023
S31508002E9001006363FFF7DCFD6FF00100FFF720FE1A
S31508002EA007F070FB0020FFF7D3FD0020FFF718FEA0
S31508002EB00023636470BD00BF4D2A00088801002006
S31508002EC0170008003D2A0008D9290008F811002033
S31508002ED0E12A0008512A000869B1431813F8013C91
S31508002EE0032B0AD00139014403E011F8013D032BF5
S31508002EF003D08142F9D1002070470120704700BFF6
S31508002F00BEBE704707F0CEB970B50F4E3368CBB961
S31508002F100E4C0F4DAC4206D111E043F00103A361FC
S31508002F202034AC420BD0E36820469847A3690028B2
S31508002F30F3D123F00103A3612034AC42F3D101237A
S31508002F40336070BD70BD00BF40120020000600202F
S31508002F5000070020F0B51E4BDFF878E083B0734514
S31508002F6001932AD0844618466346046804E014F898
S31508002F70016BD6B1B5421CD11D781F4622460133D6
S31508002F80002DF4D12378A3B940680C46F0B1694600
S31508002F90FFF7E0FF38B9019B1D699DB13A4601A8C4
S31508002FA00099A84768B103B0F0BD12F8013C2F2B71
S31508002FB0EAD0203070450190D6D16FF0010003B0F9
S31508002FC0F0BD019B2360002003B0F0BD0090E2E74E
S31508002FD00006002000070020836810B41C6854B15E
S31508002FE00AB113681BB123465DF8044B1847184607
S31508002FF05DF8044B70476FF0C900F9E7836810B4B1
S315080030005C6854B10AB113681BB123465DF8044BDA
S31508003010184718465DF8044B70476FF0C900F9E782
S3150800302030B48468A56845B10AB1146814B1AC46D1
S3150800303030BC6047204630BC70476FF0C900FAE7DD
S3150800304030B48468E56845B10AB1146814B1AC4671
S3150800305030BC6047204630BC70476FF0C900FAE7BD
S3150800306083681B6903B118476FF0C900704700BF32
S3150800307030B48468656945B10BB11C6814B1AC46B7
S3150800308030BC6047204630BC70476FF0C900FAE78D
S3150800309030B48468A56945B10BB11C6814B1AC4657
S315080030A030BC6047204630BC70476FF0C900FAE76D
S315080030B06FF0C900704700BF6FF0C900704700BFC6
S315080030C06FF0C900704700BF6FF0C900704700BFB6
S315080030D06FF0C900704700BF6FF0C900704700BFA6
S315080030E06FF0C900704700BF98B130B4421E12F89D
S315080030F0013FA3F10804111AB3B10D2B0AD0022C13
S31508003100A3F1200506D91B2B04D05E2D02D9002079
S3150800311030BC7047B1F5006FF9DC12F8013FA3F136
S315080031200804111A002BE8D10120F1E72DE9F04F28
S3150800313006460F46934656EA070295B01BD1302439
S315080031408DF800400DF10105EA46013D2B465A4629
S3150800315001E013F8014D02F8014B5345F9D1C3F1CB
S3150800316001022A44ED1A9344681C00238BF80030A8
S3150800317015B0BDE8F08FEA466D4698464FEAE37902
S315080031803046394642464B4609F0C8FE1E9B9C5CB3
S3150800319005F8014B304639464B46424609F0BEFE15
S315080031A006460F4656EA0703EAD15545CDD1002013
S315080031B0DBE700BF8A684B689A4209DA0B685A1C33
S315080031C00A6018700B6800221A708B6801338B60CE
S315080031D0704700BF0A2810B5044604D02046BDE84B
S315080031E01040FFF709BE0D20FFF706FE2046BDE892
S315080031F01040FFF701BE00BFFFF7ECBF704700BFE6
S31508003200014B1860704700BF9005002010B50446B2
S31508003210007828B1FFF7DEFF14F8010F0028F9D16E
S3150800322010BD00BF2DE9F04F89B09246129D002DC2
S315080032300DF1FF35994606460F4614BF4FF0300884
S315080032404FF020082B460DF11F0203F8018F934219
S31508003250FBD156EA070317D130238DF80030139BAC
S3150800326001249C42B8BF1C46B9F12D0F2DD0013C54
S3150800327001346D466C4414F8010DFFF7ABFFAC4200
S31508003280F9D109B0BDE8F08FDFF858B00024304610
S3150800329039465246002309F041FE1BF8023005F86C
S315080032A0013F304639460023524609F037FE0646A6
S315080032B00F4656EA070304F10104E8D1139B9C4222
S315080032C0B8BF1C46B9F12D0FD1D1631E08AA1A44FE
S315080032D012F8202C424508BF1C4608AB234403F8C5
S315080032E0209CC5E7D4D7000800B5002883B0B8BF2E
S315080032F040424FF0000200920192B4BF2D232B23C7
S31508003300C1170A22FFF78EFF03B05DF804FB00BF62
S3150800331000B583B000210091019110222B23FFF7FD
S3150800332081FF03B05DF804FB2DE9F04FA1B0154607
S315080033300890104603910A93FFF7D6FE0446002824
S3150800334000F06E81002702974FF000084FF0000941
S315080033502878002800F03D81252840F02F816E78D6
S315080033602D2E00F05881002302350493302E08BF15
S315080033702E78A6F1300308BF4FF0010CDAB20CBF65
S3150800338065444FF0000C092A4FF000040AD815F8D6
S31508003390016B04EB840403EB4404A6F13003DAB2B0
S315080033A0092AF4D92E2E00F025816C2E00F01A81F8
S315080033B000231A467A2E00F01181A6F14201362919
S315080033C000F26681DFE811F0370064013700640116
S315080033D064016401640164016401640164016401B7
S315080033E064016401640164016401640164013700D5
S315080033F064016401370064016401640164016401C5
S3150800340064016401640164013700640137006401E2
S315080034106401640164016401640164016401640176
S3150800342064016401A8006401640164016401370051
S31508003430640164013700002B71D00A9806F0DF0199
S31508003440073020F0070E44290EF10800DEE900894E
S3150800345070D0002A00F01F8100224FF000090A9060
S315080034600692A6F12502532A00F22B82DFE812F013
S31508003470C10129022902290229022902290229024F
S3150800348029022902290229022902290229022902D6
S3150800349029022902290229022902290229022902C6
S315080034A02902290229022902290219011D026B0093
S315080034B029022902290229022902290229022902A6
S315080034C0290229022902290229022902FC012902C4
S315080034D06B00290229026B00290229022902290206
S315080034E02902290229022902290219011D026B0053
S315080034F02902290229022902290229022902290266
S31508003500290229022902C90129022902FC012902E4
S315080035106B00290229026B000BB101228DE70A987C
S3150800352006F0DF020168442A00F1040088464FEAE3
S31508003530E17991D1B8F1000F79F100020A90C0F251
S31508003540E28100230693443E342E00F22882DFE807
S3150800355016F0030226022602260226022602260262
S31508003560260226022602260226022602260226020D
S3150800357026022602030226022602F1012602260256
S3150800358026022602260226022602260226022602ED
S315080035902602030226022602260226022602260200
S315080035A0260226022602260226023C0226022602B7
S315080035B0260226020302260226023C02089B0399DB
S315080035C001359847029B28780133029300287FF437
S315080035D0C3AE029C204621B0BDE8F08F01222E78AA
S315080035E01544EAE62E786C2E00F095810135002305
S315080035F00122DFE62E78A6F13003092B0CF1010C27
S3150800360005F101053FF6D1AE15F8016BA6F13003B9
S31508003610092BF9D9C9E60123AE7804930335A5E643
S315080036203C21AD4E0846FFF7D5FD16F8010F0028D8
S31508003630F9D1014600900190102228462B23A74D68
S31508003640FFF7F0FD2020FFF7C5FD15F8010F00284C
S31508003650F9D10A9A0546161F02F11C0B2020FFF71E
S31508003660CBFB56F8040F00950195002110222B2359
S31508003670FFF7D8FD5E45F1D1994D3E20FFF7AAFD2B
S3150800368015F8010F0028F9D1204621B0BDE8F08FC2
S3150800369000220692E5E6002B3FF4DEAE0A9006927B
S315080036A0DFE6002C00F03C81671E00F08B810026C7
S315080036B00DF13F020023C3F12001B3F1200028FADF
S315080036C003FA09FA01F14AEA010A5CBF49FA00F06D
S315080036D04AEA000A00210AF00100014349FA03FBFD
S315080036E003F1010314BF31212E21BB4202F8011F49
S315080036F0E1DB099610AE069B002B00F0A580099B1E
S31508003700013B0993BCF1000F00F0EE80029B06987E
S31508003710039901330293089B9847049B002B40F0BA
S31508003720EE80099A531E002A0B9340F348813023F2
S315080037301A46049B06930B9BCDE90C89CDE90EAB83
S31508003740DDF82090DDF80CA090469B460BF1FF3B78
S3150800375040465146C847BBF1FF3FF7D1029B0B9A3B
S31508003760013313440293099BDDE90C89DDE90EABAD
S31508003770D31A0993069B002B40F0B980002C1ADD5A
S31508003780CDE90689DDF82080DDF80C90344614F87A
S31508003790010B4946C047C4F101033B443344002B9F
S315080037A0F5DC029A27EAE7730132DDE90689013F6B
S315080037B01A440292FF1A049B002B3FF4C9AD099ADA
S315080037C0002A02F1FF347FF7C3ADCDE90489DDF89D
S315080037D02080DDF80C902646013E20204946C04749
S315080037E0731CF9D1029B01332344DDE90489029352
S315080037F0AEE5029B0399013302932520089B98475F
S31508003800A6E5039E089C30203146A047029B7820F7
S315080038100233314602930827A0474FF0010C314B7B
S31508003820009310AA102340464946CDF82CC0FFF74E
S315080038307DFC3B1A0993069BDDF82CC0044610AEA6
S31508003840471E002B7FF45BAFBCF1000F7FF465AF1A
S31508003850049B002B92D1099A531E002A0B9340F31E
S31508003860A68020231A4666E70A9A13461668043382
S315080038700A93002E00F099803046CDF824C0FFF751
S3150800388033FCDDF824C000286FD03378002B00F015
S3150800389091803246002312F8011F01330029FAD11C
S315080038A0E21A09925F1E1C4625E70A9A03991078C0
S315080038B01346029A043301320A93089B02929847E8
S315080038C046E50399089C2520A047029B03990233E5
S315080038D030460293A0473BE5E8D7000800D8000821
S315080038E004D8000834D80008049B002BB3D0089BE2
S315080038F0069803999847029B013302933EE7002CEA
S315080039003FF73EAF5BE7D8F100084FF02D0269EBB1
S3150800391049090692A5E501236E781A46023549E556
S31508003920002B14BF40242024C4F1000614BF3F27EF
S315080039301F27BDE6264B0093CDF82CC010AA40469B
S3150800394049461023FFF7F2FB231A10AE0993471EC8
S315080039500446DDF82CC0CEE61E4B0093CDF82CC0ED
S3150800396010AA404649460A23ECE71B4F09943C2116
S315080039703C4608466746FFF72DFC14F8010F002859
S31508003980F9D1014600900190102230462B230B975F
S31508003990099C124EFFF746FCDDF82CC075E7E31BC1
S315080039A009933C4610AE013FA5E60D4E6DE70B9B0D
S315080039B00993DFE609944FF0FF371C469BE60B9BFD
S315080039C00993DBE6099710AE95E6274627E700BF79
S315080039D0D4D7000828D8000808D8000824D8000832
S315080039E01CD800080FB400B583B004AB064953F8D9
S315080039F0042B086801930021FFF796FC03B05DF8D5
S31508003A0004EB04B0704700BF9005002030B583B0C2
S31508003A101546069C00930A462B4601940021FFF79B
S31508003A2001FC03B030BD00BF0EB430B584B007AB9F
S31508003A30019053F8042B084800934FF4806500243E
S31508003A4001A902950394FFF76FFC039804B0BDE83B
S31508003A50304003B0704700BFB53100080CB430B52C
S31508003A6085B008AB019053F8042B074800934D1E08
S31508003A70002401A902950394FFF756FC039805B0A4
S31508003A80BDE8304002B07047B531000810B584B0C3
S31508003A9013460A464FF4806101900291002401A959
S31508003AA003480394FFF740FC039804B010BD00BF19
S31508003AB0B531000810B584B001390190029100248F
S31508003AC001A903480394FFF72FFC039804B010BD1F
S31508003AD0B531000810B4044C02460B4620685DF860
S31508003AE0044B0021FFF720BC9005002091422DE9E8
S31508003AF0F8430F4615460646984600D2551A002D35
S31508003B0038DD2048B8F1000F36D0C8EB0701B047BA
S31508003B104FF00109002409E0395DB047072C2ED083
S31508003B20B9F1100F08D0013409F10109AC42164861
S31508003B30F2DB1648B047F1E71548B04700240AE01B
S31508003B40395D1448A1F120035E2B88BF2E2101346C
S31508003B50B047102C07D0AC42F2DB20210D480134C7
S31508003B60B047102CF7D1103D0B48B047002D07F190
S31508003B701007C6DCBDE8F8833946B047C8E70748EA
S31508003B80B047D0E748D8000850D8000858D80008E9
S31508003B905CD8000860D8000864D8000878D80008FF
S31508003BA010B40C4613460146224602485DF8044BFB
S31508003BB0FFF79CBFE53900080A460023014601487D
S31508003BC0FFF794BFE539000888422DE9F04105461C
S31508003BD00F46904600D20F1A002F1BDD1248B8F187
S31508003BE0000F1DD0C8EB0501FFF7FCFEBE10002430
S31508003BF0A6420E4810DD55F82410FFF7F3FE0134EF
S31508003C00042CF5D1103F0A48FFF7ECFE002F05F10A
S31508003C101005E3DCBDE8F0810648FFF7E3FEEEE7B2
S31508003C202946FFF7DFFEE1E748D8000868D800080C
S31508003C307CD8000870D800080022FFF7C5BF00BF6F
S31508003C4088422DE9F84307468846914601D2C0EBDB
S31508003C500108B8F1000F28DD1948B9F1000F26D080
S31508003C60C9EB0701FFF7BEFE4FEA680601250024E7
S31508003C7009E037F81410FFF7B5FE032C1BD0082D02
S31508003C8009D001340135A6420E48F2DC0E48FFF78A
S31508003C90A9FE082DF5D1A8F110080C48FFF7A2FED9
S31508003CA0B8F1000F07F11007D6DCBDE8F8833946EE
S31508003CB0FFF798FED8E70648FFF794FEE1E700BF4E
S31508003CC048D8000880D8000874D800087CD80008AE
S31508003CD078D800080022FFF7B3BF00BFFFF77EB809
S31508003CE008B501F05BFB00BF024A13680133136095
S31508003CF0704700BFA005002008B5074B1A680132B7
S31508003D001A601A68012A03D91868013801D01860A0
S31508003D1008BD01F0B7FAFBE7A005002008B5064B79
S31508003D201A6802B908BD1868013801D0186008BDBC
S31508003D3001F0A8FAFBE700BFA0050020014B1868B0
S31508003D40704700BFA0050020F0B585B08E460D9CD3
S31508003D500A9F0B9E0093014613462046724601971A
S31508003D6002960C9D00F09CFA2C6005B0F0BD00BFD1
S31508003D7000F0E2BCC36B102B10B5044606D000F069
S31508003D8099FDE36B102B01D0002010BD204600F0F2
S31508003D9047FB012010BD00BF00F03ABCC36B102BD7
S31508003DA010B5044604D02046BDE8104000F050BCCB
S31508003DB000F016FB2046BDE8104000F049BC00BFE5
S31508003DC000F078BD00F08EBC024B18681C3001F07C
S31508003DD06FB900BFA41B0020014B1868704700BFCD
S31508003DE0A41B0020B0F84C00704700BF004870477D
S31508003DF0481A002000F0A6BD836B0BB9406A7047CD
S31508003E00406B7047406A7047704700BF044B10B458
S31508003E101C6802460B4620465DF8044B00F0F0BDD0
S31508003E20A41B0020006870474068704738B51D4BD2
S31508003E301A6801321A600268A2B91B4A12686AB186
S31508003E40D2F8A0200260B2F84C200A800124186833
S31508003E50144B013813D01860204638BD0260B2F8FA
S31508003E604C30FFDEB2F84C500C88A5420BD000222D
S31508003E70026014460A8018680A4B0138EBD101F033
S31508003E8001FA204638BD084C2468A242EFD0D2F881
S31508003E90A020002AEBD0B2F84C50026001240D8015
S31508003EA0D5E700BFA0050020F01A002038B5134D4D
S31508003EB02B6801332B60124B1968E9B1D1F8A03091
S31508003EC04BB1B3F84C20824205D099420CD0D3F8B6
S31508003ED0A030002BF5D11C462868084B013808D1BC
S31508003EE001F0D0F9204638BD00242868034B013874
S31508003EF0F6D01860204638BD0B46E1E7A00500203D
S31508003F00F01A002070B5184B1C6801341C60B0F814
S31508003F104C408C4207D000241868134B01381CD03B
S31508003F201860204670BD002AF5D0816B1060C66BFC
S31508003F30D0F89C50D5609480966091B9416A116119
S31508003F40416A5161016891614168D161002111623C
S31508003F5001241868044B0138E2D101F093F9204690
S31508003F6070BD416BEBE700BFA005002000F09CBDCB
S31508003F7000F0BEBD034B1B6803EB8000D0F884003D
S31508003F80704700BFA41B0020024B1B6803EB800090
S31508003F9084307047A41B0020034B1B6803EB80008A
S31508003FA0C0F88410704700BFA41B0020F0B583B08A
S31508003FB00F461646089D064C0093014601953A465B
S31508003FC033460448246800F0F3FD03B0F0BD00BF93
S31508003FD0A41B0020F81A0020024B01461B68024861
S31508003FE000F0F4BDA41B0020F81A002000F050BD14
S31508003FF0F0B583B00F460A9C089E00930146134607
S3150800400020463A460196099D00F002FE2C6003B050
S31508004010F0BD00BF00F00ABE00F092BE00F0B4BECC
S3150800402000F0D2BE002200F0D7BE00BF00F0EABE04
S3150800403000F000BF00F010BF00F01ABF00F01ABF72
S3150800404000F024BF00F024BF00F024BF704700BF73
S315080040500020704738B505460C460846012106F08B
S31508004060A1FF2C6038BD00BF06F0A6BFD0E902014B
S31508004070704700BFC0E90223704700BF012107F05F
S31508004080CFB800BF114607F0CBB800BF30B585B032
S315080040908DE803000846009903901C46029104AB7C
S315080040A01546204613E9060006F0BAFF2C6005B04F
S315080040B030BD00BF06F0CCBF0860704782B002ABC7
S315080040C003E906009DE80C004261836102B070476F
S315080040D08A69496980E80600704700BF014B18687D
S315080040E0704700BF983C0020024B1B68D3E90201C9
S315080040F0704700BF983C0020F8B5069C0F46164648
S315080041001D4601463A463346204606F0D9FF2C603E
S31508004110F8BD00BF07F044B907F046B807F04EB936
S3150800412007F0F0B807F00AB938B505460C46084650
S3150800413001F066FC2C6038BD01F068BC01F08ABC51
S3150800414001F0F2BC01F072BD01F0C6BE01F0ACBDD3
S3150800415001F00ABE01F08ABE4068704780680030E8
S3150800416018BF0120704700BFC068003018BF012083
S31508004170704700BF01F070B901F072B901F084B957
S3150800418001F0D0B901F04CBA01F064BA10B50C468A
S3150800419001F080FA206010BD002101F07DBA00BF51
S315080041A001F07EBA01F0C8BA01F0B4BA11B112F042
S315080041B0FC0F01D00020704701F040BB30B411B1AC
S315080041C012F0FC0F02D0002030BC704730BC01F062
S315080041D097BB00BF11B112F0FC0F01D00020704749
S315080041E001F0FEBA006870474068003018BF012029
S315080041F0704700BF01F098BE01F0A6BE01F0B8BE38
S3150800420001F034BF01F062BF01F0A6BF01F0C2BFE2
S3150800421001F0D0BF01F0DEBF01F0E4BF016801F094
S31508004220F5BF00BF02F02EB802F04AB8016802F0E6
S3150800423071B800BF0023036009B10123036070470A
S31508004240704700BF01230360704700BF0023036067
S31508004250704700BF03681BB90123036018467047FF
S31508004260002070470068704710B40A461023EFF321
S315080042701184194681F311880123146003605DF8DF
S31508004280044B70470023036081F31188704700BF11
S31508004290024A13680133136030BFFAE7F41A0020A4
S315080042A0F8B5079E089F04460025B8192261636180
S315080042B00A462660A660E060A5612146676004F1AB
S315080042C01C0001F06FF83E4B3E4A196804F1500095
S315080042D0034606F0F5FE3C4B65641A8884F8805060
S315080042E001200426111884F88150C4F88450C4F8B3
S315080042F08850C4F88C50C4F89050C4F89450C4F848
S315080043009850069DE467C4F89C50E6632064A4F8B8
S315080043104C2019802D490B6803440B602C4D2A68E4
S31508004320002A49D094420CD0D2F8A000824218BF85
S31508004330034604D134E0D3F8A0309A4230D09C42E8
S31508004340F9D12C600868214B013832D01860214811
S31508004350214600F06FFEE76827F00707A7F1040E6D
S315080043602EF00F06022346F8443CA6F14405A6F1B2
S315080043703803A6F10800002143F8041F83424FF0D2
S315080043800002F9D1144B154947F8043C2B64AE607A
S31508004390EC60C5F838E06A6029612046E560F8BD3A
S315080043A0C4F8A0002C60C2F8A0400868074B013882
S315080043B0CCD100F067FFCAE7C4F8A040C1E700BF48
S315080043C0983C00204145000898050020A0050020DB
S315080043D0F01A00201C1B0020794700080000111164
S315080043E070B5044684B0503006F0A8FF21460B4845
S315080043F000F022FEA36B73B9616A6068D4F89C600A
S315080044002568226963690290009601952046FFF7A0
S3150800441047FF04B070BD616BEFE700BF1C1B0020AF
S3150800442038B5014604461B4800F006FE1A480368DC
S3150800443001330360194D29680B4602E09142134681
S3150800444009D0D3F8A0209442F8D1D4F8A020C3F814
S31508004450A0208C4219D000680F4B013812D0186082
S315080044600023A4F84C3004F1500006F099FF2346C7
S3150800447053F81C2F9A4203D0236A5360236A1A60A2
S31508004480204638BD00F0FEFEEAE7D4F8A0302B60DF
S31508004490E1E700BF1C1B0020A0050020F01A002041
S315080044A00148FFF7BDBF00BF481A002038B50C4BBE
S315080044B01D680C4C236801332360EB6B23B90A484B
S315080044C0294600F073FDEB6B43F00103EB632068AC
S315080044D0044B013801D0186038BD00F0D3FE38BD52
S315080044E0A41B0020A00500201C1B002038B504468C
S315080044F0114D2B6801332B60C36B9A070BD0C06A2A
S3150800450023F00303E36328B1214600F077FE002277
S31508004510E36BE2622BB12868074B013809D01860B3
S3150800452038BD2146054800F0F5FC2868024B0138DD
S31508004530F5D100F0A7FE38BDA00500201C1B002001
S3150800454010B5C86A164C23680133236090F880209A
S31508004550072A0ED80123934013F0F3021AD113F059
S31508004560080111D15B0704D5072380F8801080F86D
S315080045708130FFF7BBFF2068094B013801D018606E
S3150800458010BD00F07FFE10BD032380F8802080F860
S315080045908130EEE720680138F3D02060F0E700BFED
S315080045A0A005002010B50F4C236801332360C36BA8
S315080045B09B0708D4436C013343642068094B0138D0
S315080045C00DD0186010BD0021072380F8801080F8F0
S315080045D08130FFF78BFF2068024B0138F1D100F0DC
S315080045E051FE10BDA005002010B5084B1A6801320F
S315080045F01A600022446C42641868013802D01860B8
S31508004600204610BD00F03EFE204610BDA005002045
S3150800461038B504460C4D2B6801332B60026CC36B0E
S315080046200132026423B90948214600F0BFFCE36B56
S3150800463043F00403E3632868034B013801D018608C
S3150800464038BD00F01FFE38BDA00500201C1B002049
S3150800465010B5104C236801332360036C012B08D076
S315080046600BB1013B036420680A4B01380ED0186071
S3150800467010BDC36B002223F00403C3630264002B3E
S31508004680F1D10146044800F045FCECE700F0FAFDDC
S3150800469010BD00BFA00500201C1B002010B50F4C44
S315080046A0236801332360036C33B1C36B002223F004
S315080046B00403C36302642BB12068084B013809D090
S315080046C0186010BD0146064800F024FC2068034B1C
S315080046D00138F5D100F0D6FD10BD00BFA0050020B9
S315080046E01C1B002010B5134C23680133236090F877
S315080046F08020072A07D80123934013F0F10213D12B
S3150800470013F00E0F0AD1FFF7F1FE2068094B0138A6
S3150800471001D0186010BD00F0B5FD10BD042380F867
S31508004720802080F88130EEE720680138F3D02060D9
S31508004730F0E700BFA00500200C4A38B515680C4CF8
S315080047402368013323601068503006F0F7FDEB6BE1
S31508004750102B05D01023EB632946064800F026FCEB
S315080047602068BDE8384000F08DBD00BFA41B0020BE
S31508004770A00500201C1B00200446014608B5044875
S3150800478000F0D4FD236960699847FFF7D5FFF9E77C
S315080047901C1B0020164A38B51468164D2B680133C1
S315080047A02B60636C83B1013B63642868114B013845
S315080047B01BD0186094F88130053B012B00D938BD11
S315080047C0BDE83840FFF7B8BF11681268012081F8C4
S315080047D0800082F88130FFF769FEE36B43F002033D
S315080047E0E3632868034B0138E3D100F04BFDE1E7AA
S315080047F0A41B0020A00500202DE9F04F2A4E83B007
S315080048000B463468294D296801312960616C99B1D4
S31508004810013961642868254B013842D0186094F83C
S315080048208130053B012B02D903B0BDE8F08F03B0F8
S31508004830BDE8F04FFFF780BF02461D480068D0E983
S315080048400289D6F800C0D6F800E0306812EB0802F4
S315080048504FF003074FF0000A4FF0000B8CF88070FA
S3150800486043EB09038EF881105030CDE900AB06F012
S315080048709BFC94F88130002BCCD13168326881F8E2
S31508004880807082F88130FFF711FEE36B286843F0E9
S315080048900203E36300F0F6FC3068503006F04EFD84
S315080048A0B8E700F0EFFCBAE7A41B0020A00500203B
S315080048B0983C002038B5204B1B689842044637D0F0
S315080048C01E4D2B6801332B602046FFF7E7FE04F1E7
S315080048D0500006F033FD94F88130062B0FD094F87B
S315080048E08030072B0BD8DFE803F0130404040D0D02
S315080048F00D0D0022062384F8802084F88130204696
S31508004900FFF7F4FD28680D4B013809D0186038BD4B
S31508004910E36B43B11023E3632046FFF7E7FDF1E7B6
S3150800492000F0B0FC38BD0648214600F03FFBF1E731
S31508004930FFF702FFC4E700BFA41B0020A005002064
S315080049401C1B0020F8B504460F46294E3368013370
S315080049503360C36B002B44D013F0010325D11D46E9
S315080049602448214600F068FBA36B1BB1636A6763A2
S315080049709F4200DA67621F48214600F05BFBE36B43
S31508004980EBB1DB0704D51DB12846214600F006FC2D
S31508004990194B1B689C421AD0204600F031FB306840
S315080049A0134B01381AD01860F8BDC56A002DD7D048
S315080049B02846214600F022FC0023E362D0E70D4892
S315080049C0214600F0A7FA0C4B1B689C42E4D10B4B1E
S315080049D001221A603068064B0138E4D100F052FC17
S315080049E0F8BD044821461D4600F0E0FAB8E700BFC6
S315080049F0A00500201C1B0020A41B0020181B00205B
S31508004A002DE9F04F064683B0904699461D4D2B6812
S31508004A1001332B60FFF74AFD1B4B1C4C1B68D3E97F
S31508004A200223D4F800E0216820684FF0020C12EB4C
S31508004A3008024FF000074FF0000A4FF0000B8EF8FF
S31508004A4080C043EB090381F881705030CDE900AB93
S31508004A5006F0AAFB2868013811D028602068503073
S31508004A6006F06CFC96F88130053B012B02D903B0A1
S31508004A70BDE8F08F03B0BDE8F04FFFF75DBE00F06C
S31508004A8001FCEBE7A0050020983C0020A41B0020B1
S31508004A90034B1B68834200D07047024800F09EB85B
S31508004AA0A41B0020F81A00200F4A1368013313606C
S31508004AB00E480368ABB110B55C421C40B4FA84F4E6
S31508004AC00121C4F11F04A14023EA01030360106811
S31508004AD0013802D01060204610BD00F0D3FB2046F6
S31508004AE010BD4FF0FF307047A00500209405002048
S31508004AF010B5094B1A6801321A60084C0121226860
S31508004B0081400A4322601868013801D0186010BD38
S31508004B1000F0B8FB10BD00BFA005002094050020DA
S31508004B2030B50F4B0F4C104A1049C31ADB1085B02D
S31508004B3004FB03F402EBC4234FF40062054600911C
S31508004B400193029200231F21094AFFF7A9FB224677
S31508004B502946084800F066FA284605B030BD00BF69
S31508004B60481A00203DCFF33C4412002088D800089C
S31508004B70914200081C1B002008B50548FFF7D0FF26
S31508004B8000200449044ABDE8084008F095BC00BF67
S31508004B90481A0020A1440008C4050020704700BF39
S31508004BA0024A026000224260704700BF9D4B00081F
S31508004BB030B4029C03990CB10568256009B14468B4
S31508004BC00C6080E80C0030BC704700BF024B0360E5
S31508004BD000234360704700BF9D4B00080368406888
S31508004BE0184700BF034B1B680A4601461846FFF7DD
S31508004BF04FBF00BFA41B0020024B034A1A600022C5
S31508004C005A607047F81A00209D4B0008704700BF8D
S31508004C1070B4039E049D016000218660C5604161F1
S31508004C2042600361816170BC704700BF0B4B02682C
S31508004C3010B453F8221084688C420BD1084943F803
S31508004C40221008490468084A002341F824300168FC
S31508004C5042F821305DF8044B704700BF304200200F
S31508004C60052F0008A843002020450020F8B5102786
S31508004C70EFF31182394681F311880D480D4C03680C
S31508004C80002101600D46216005E0EFF311823946E7
S31508004C9081F31188234659699C695D619D6182F398
S31508004CA01188DE6818681A69B047002CEDD1F8BD7E
S31508004CB0001B0020101B0020FFF7D8BF014B00DFA8
S31508004CC070470000BF0000081023EFF31182194651
S31508004CD081F311884369591C416123B9064B196848
S31508004CE0186019B1886182F311887047034B186000
S31508004CF082F31188704700BF101B0020001B00209C
S31508004D00FFF7E2BF38B58307154603D511B1084644
S31508004D10FFF7DAFF084C23689D61084B18680138CD
S31508004D2004D01860236800229A6138BD00F0AAFAF8
S31508004D30236800229A6138BDA41B0020A005002024
S31508004D4010B5044603C805F051FA22680A4B0B4908
S31508004D5053F8220053F8220088420BD1A16843F881
S31508004D602210074B2268216943F82210054B226856
S31508004D7043F8224010BD00BF30420020052F00082E
S31508004D80A8430020204500200B4B026810B453F8B6
S31508004D90221084688C420BD1084943F8221008492E
S31508004DA00468084A002341F82430016842F8213093
S31508004DB05DF8044B704700BF30420020052F0008FD
S31508004DC0A843002020450020024B53F820300B60F2
S31508004DD0704700BF0000002030B410230D46EFF3E3
S31508004DE01184194681F31188054B12B153F8201026
S31508004DF0116043F8205084F3118830BC704700BF17
S31508004E0000000020084B1A6852B91022EFF31180EF
S31508004E10114681F311880549054A08600121116088
S31508004E201A6801321A6070470C1B0020081B002004
S31508004E30041B0020054A1368013B13602BB904497B
S31508004E40044A0B60126882F3118870470C1B002015
S31508004E50041B0020081B002010B51023EFF3118453
S31508004E60194681F3118805F01DF884F3118810BDE1
S31508004E7005F018B810B51023EFF31184194681F31D
S31508004E80118805F07FF884F3118810BD05F07AB80B
S31508004E9005F0F6B805F048B9054B0649064A10B4B8
S31508004EA000241C6018465DF8044B08F005BB00BFDB
S31508004EB0041B00200D4C0008C40500200B4A0121E4
S31508004EC010B4031D116000F18404002143F8041B8B
S31508004ED0A3424FF00002F9D10549064B02600524AA
S31508004EE001220C601A605DF8044B7047A00500208B
S31508004EF0141B0020181B002003685A421340B3FAFB
S31508004F0083F3C3F11F0300EB8303586800B11C3811
S31508004F10704700BFCA6A70B44C6A002A26D0166861
S31508004F2001F11C030025B342CD622DD0CA690D6A72
S31508004F3055600D6A2A600B62CB6100EB84056A68CE
S31508004F40DAB1506808625068CA6103605360154B4D
S31508004F501A68526A944202DB1B68DB6B13B1124B68
S31508004F6001221A6005238B6270BC704700EB84052A
S31508004F7001F11C036A68002AE3D106680122A240EF
S31508004F80324302606B60E2E7CE69B34207D00D6A2E
S31508004F9075600D6A2E600B62CB611660CDE71560F1
S31508004FA0CBE700BFA41B0020181B002070B44D6A75
S31508004FB000EB850401F11C026368934213D0CC69A7
S31508004FC00E6A66600E6A34600A62CA611BB170BCFA
S31508004FD070470023636003680122AA4023EA02039C
S31508004FE0036070BC70471A689342F2D059685160E2
S31508004FF059680A605B601B60626070BC704700BFDE
S31508005000064B426A1968496A914202DC1B68DB6BE7
S3150800501013B1034B01221A60704700BFA41B00207E
S31508005020181B0020024B084643F82210FFF710BB56
S31508005030A41B0020704700BF704700BF01207047BF
S315080050400C4B0D4A1968126899B9D16B89B9506A1F
S315080050500A4901EB8001486808B100684860496858
S3150800506011B11C398A4202D0054A01211160052274
S315080050701A607047141B0020A41B00201C1B00206C
S31508005080181B0020034A1368013B136003B17047DD
S31508005090FFF7D6BF141B00200148FFF7D1BF00BF9A
S315080050A01C1B00200346586018608160704700BFCB
S315080050B0104B1A6801321A601C38C26B7AB9416AF9
S315080050C00D4A02EB8102516809B1096851605268BC
S315080050D012B11C3A904206D0084A0121116018689C
S315080050E0013800F0CFB8052282621868013800F04E
S315080050F0C9B800BFA00500201C1B0020181B0020F3
S3150800510008B50B4A1368013313600A4B03EB80009A
S31508005110436823B11B680849436001230B60106884
S31508005120034B013801D0186008BD00F0ABF808BD84
S31508005130A00500201C1B0020181B002038B5134BA7
S315080051401A6801321A60A0F11C01CA6A4AB11060D5
S3150800515018680E4B013801D0186038BD00F092F877
S3150800516038BDCA698242F3D0094C496A2568094A9A
S315080051706D6A02EB8102A942506003DB2268D26B9A
S31508005180002AE5D0044A01211160E1E7A0050020C4
S31508005190A41B00201C1B0020181B002071B10368EB
S315080051A001F11C0273B110B45C6854605C6813604A
S315080051B022605A605DF8044BC862704703680A4665
S315080051C0002BF0D10260C862704700BF036883B144
S315080051D01A6893420FD05968516059680A605B6033
S315080051E01B600260B3F11C0002D00023C362704743
S315080051F070471846704700220260F3E7026801F11B
S315080052001C0310B49A424FF00004CC6209D0CA6954
S31508005210086A5060086A02600B62CB615DF8044B4D
S31508005220704713689A4209D05168596051685DF809
S31508005230044B0B6052601260036070470460EDE730
S31508005240006800B11C38704770B4051D14D000F111
S3150800525084020026043A136863B119688B420DD09C
S315080052605C684C605C6821605B601B601160136859
S31508005270002BF2D19542EDD170BC70471660EAE773
S31508005280704700BF2DE9F04F214FDFF89890DFF8FF
S315080052909080204EDFF890A083B0054618B9336891
S315080052A00BB1FFF70BFD3C68E36B13B9D9F8003077
S315080052B0FBB11948FFF720FE8442834616D0174AE9
S315080052C0DAF800301168A162013320465946019286
S315080052D0CAF80030FFF7D4FF0BF10C0004F10C01FB
S315080052E005F090F8019AA36A3C6013600023C9F898
S315080052F0003045B90A4AC8F8005033682BB113681C
S3150800530001331360CBE7C8F8005003B0BDE8F08F4F
S31508005310A41B0020001B00201C1B0020141B0020BF
S31508005320A0050020181B0020A01B002038B50D4A38
S315080053300D4B0E4C0E480025156019602268052392
S315080053408B62036062B1254602E0286023683BB1A0
S3150800535020680138F9D1FFF795FF2368002BF7D1AC
S3150800536038BD00BF181B0020A41B0020A005002084
S31508005370141B002008B50648FFF7BEFD0549064A76
S31508005380034600240C300C60136005F045F800BF96
S315080053901C1B0020181B0020A41B002008B5FFF7C3
S315080053A0E9FF00BF10B511460446FFF77BFE002350
S315080053B023616361E361204610BD00BF70B585684F
S315080053C08D4200DC70BDC66900230446C3611C38E3
S315080053D0FFF7B8FA06B9A5610123E36170BD00BFFE
S315080053E013680A4613B1496AFFF7E8BF704700BF5A
S315080053F0436933B9C26922B181698268C3618A4245
S3150800540000DB70471C38FFF79DBA00BF0A46496A99
S31508005410FFF7D4BF13680A4613B1496AFFF7CEBF30
S31508005420704700BFFFF7E4BF0022FFF7C7BF00BF02
S31508005430FFF7DEBF10B5054C2046FFF73FFD2046B7
S315080054400349044ABDE8104008F036B81C1B002082
S3150800545049520008C4050020002280E8060070476B
S31508005460436810B4002463B11A68934208D0596897
S31508005470516059680A605B601B6042601346F2E738
S3150800548044605DF8044B70472DE9F047234D82B020
S3150800549080462E68224F3B6801333B60012300F1AA
S315080054A0040A9946D8F80040F4B90BB32A682B6861
S315080054B082F8809083F88140FEF7F8FF504631461F
S315080054C0FFF76CFE3868FFF7DDFE96F88130042B8F
S315080054D017D3052B17D9062B13D1FFF72DF9D8F8B3
S315080054E000400123002CE0D013B1013CC8F800406D
