S02B00002F686F6D652F6369702F323031322F76793337627970692F496E76657273657350656E64656C2F4517
S30D0800000000000220D1CB000824
S30D080000082805010001000000B3
S31508000010DFF804D00CF0DCBD000002204FF0100021
S3150800002080F311884FF0020080F31488BFF36F8FB6
S31508000030684680F309884EF00D0E7047EFF3098085
S31508000040A0F1300181F309884FF00101EFF3058231
S31508000050EFF3118320E9FE4F04460CF07BFE2046A1
S31508000060B0E8FE4F80F3098883F31188704700B51E
S3150800007081B0EFF30580A0F10F000CF06FFE01B020
S3150800008000BDEFF3098CACF1200080F30988044B1E
S31508000090044A05492CE90F002CE90F0070470000B7
S315080000A000000001A9CD0008AD000008074B00DFDD
S315080000B0EFF3098C0CF1200C8CF30988704709F0D2
S315080000C053BEEFF3098C9CE80F001847B1000008EF
S315080000D008B5424C204602210122202306F008FAE0
S315080000E020460121202206F03FFA2046022101225D
S315080000F00B4606F0FDF920460121022206F034FAE5
S315080001004FF4C06006F0ABFF4FF4006006F0A7FF9F
S315080001104FF0804006F050FA4FF0804000210A4622
S315080001200B4606F0B6FA4FF08040002106F072FB47
S315080001304FF08040002106F06FFB4FF0804006F03C
S31508000140BBFA4FF0804006F0DAFA4FF08040032100
S3150800015006F063FF4FF08040002106F0D1FC4FF017
S315080001608040022106F0CCFC4FF08040002106F0CA
S3150800017030FF4FF08040012106F02BFF4FF0804002
S315080001800021012206F0ECFE4FF0804001210222F8
S3150800019006F0E6FE4FF08040002106F047FD4FF0DE
S315080001A08040022106F042FD4FF0804006F026FB13
S315080001B04FF080404FF0FF3106F038FB4FF080409B
S315080001C006F0B6FA4FF08045054C284606F074FE50
S315080001D0014620460BF070F9F7E700BF0000024021
S315080001E0080B010810B584B0094B00934FF415634A
S315080001F00193084C0294084B0393002007490246D2
S31508000200074B08F0F9FD206808F020FE04B010BD81
S31508000210D4070020D007002028070020D1000008B6
S31508000220140B010808B54FF471300DF02BFA08BD10
S3150800023008B501464FF471300DF08EFA08BD00BFBF
S3150800024070B504461646013903290AD8DFE801F0D5
S3150800025002040608002504E0022502E0042500E061
S315080002600625204600210A460B4606F012FA2046C5
S3150800027006F045FA2046314606F0D8FA204601210E
S3150800028006F0C8FA2046002106F00CFA204620217E
S3150800029006F07EFA204606F00FFA20462946002286
S315080002A006F04EFD20462946062206F029FB204682
S315080002B0294606F0F1FB2046294606F021FC204691
S315080002C0294606F081FC284B9C4235D00BD8A3F56D
S315080002D000639C4224D003F580639C4226D0B4F187
S315080002E0804F40D116E0214B9C4231D004D8A3F56B
S315080002F080639C4226D070BD1D4B9C4204D003F5FA
S3150800030080639C422AD070BD1A4A136843F00103E1
S31508000310136070BD184A136843F00103136070BD7B
S31508000320164A136843F00103136070BD144A136834
S3150800033043F00103136070BD124A136843F00103CA
S31508000340136070BD104A136843F00103136070BD53
S315080003500E4A136843F00103136070BD0C4A136814
S3150800036043F00103136070BD000C00400014004008
S31508000370000001401400014014000040140400402D
S3150800038014080040140C00401410004014140040D7
S315080003901404014038B540F6020006F060FE164C1B
S315080003A02046022140F20312FFF74AFF20460321A6
S315080003B040F20312FFF744FF2046042140F20312DD
S315080003C0FFF73EFF0D48082106F037FE0C4D28467C
S315080003D0022100224FF4604306F08AF828460221DB
S315080003E04FF4604206F0C0F8204606F0A1F9054829
S315080003F00DF048F938BD00BF00080040303802400B
S31508000400000C024080F8030038B50FF0E9FC0EA393
S31508000410D3E900230FF04AFD00220D4B0FF046FDED
S3150800042010F01CF804460B4D28460221224606F019
S3150800043087FC28460421224606F082FC2846062127
S31508000440224606F07DFC38BD427B09ED2534704016
S315080004500000703F0008004010B540F6030006F0A3
S31508000460FEFD124C204600210A460B4606F011F9FD
S31508000470204606F044F920464FF0FF3106F0D6F93B
S315080004802046002106F0C6F9204606F015F9204652
S3150800049006F04EF945F601500021054BC3E9000167
S315080004A000200021034BC3E9000110BD000C0040E9
S315080004B0301100202811002008B5024806F0FCFC7F
S315080004C0002108BD000C0040014BD3E9000170472C
S315080004D028110020014BD3E9000170473011002094
S315080004E02DE9704F0646FFF7E7FF0446FFF7F2FFD0
S315080004F082468B464FF000097002F10D4B0143EA24
S31508000500D0634201121A63EB0103921943EB090304
S31508000510990141EA92619001801A61EB0301801901
S3150800052041EB090152465B460FF0B8FF804642F29E
S315080005300F739E4206D90A48A0FB0630400B0021DD
S3150800054008F0BCFC00254FF00009FFF7B5FF001BBB
S3150800055061EB0501494508BF4045F6D3BDE8708FF4
S315080005605917B7D1704700BF704700BF10B5094B80
S315080005704FF0FF321A6200241C625A625C621A61EA
S315080005801C615A615C619A619C61FFF7EDFF204628
S3150800059010BD00BF0038024010B50446074B1B6863
S315080005A00748A0FB0330800900F02EF94FF0FF3012
S315080005B02146002200F0CEF8002010BD8802002057
S315080005C0D34D621008B50B4B1A6842F400721A60D4
S315080005D01A6842F480621A601A6842F480721A60D5
S315080005E0032000F0A5F80020FFF7D6FF05F088FEE7
S315080005F0002008BD003C0240024A1368013313601C
S31508000600704700BF88410020014B1868704700BF3B
S315080006108841002030B583B00190FFF7F5FF054605
S31508000620019CB4F1FF3F18BF0134FFF7EDFF401BF3
S31508000630A042FAD303B030BD024A136823F002037E
S315080006401360704710E000E0024A136843F00203A3
S315080006501360704710E000E000487047000107018A
S31508000660014B1868000C7047002004E0024B18681C
S31508000670C0F30B00704700BF002004E0024A53682D
S3150800068043F0010353607047002004E0024A5368B0
S3150800069023F0010353607047002004E0024A5368C0
S315080006A043F0020353607047002004E0024A53688F
S315080006B023F0020353607047002004E0024A53689F
S315080006C043F0040353607047002004E0024A53686D
S315080006D023F0040353607047002004E0012191FAD7
S315080006E0A1F2B2FA82F2024B13449B0019607047DA
S315080006F000C18910012292FAA2F2B2FA82F2034BE1
S3150800070013449B0000221A60704700BF00C189107D
S31508000710044B1B680360044B1B684360034B1B6850
S3150800072083607047107AFF1F147AFF1F187AFF1F1D
S31508000730074AD36823F4E0631B041B0C43F0BF632A
S3150800074043F4003300F0070043EA0023D360704700
S3150800075000ED00E070B4154BDB68C3F30223C3F168
S315080007600705042D28BF04251C1D062C8CBF033B3A
S315080007700023012404FA03F6013E3240AC40013C52
S31508000780214099401143002806DA00F00F000901BC
S31508000790C9B2074B195407E00901C9B200F1604014
S315080007A000F5614080F8001370BC704700ED00E06A
S315080007B014ED00E0410900F01F0001238340024ABE
S315080007C042F82130704700BF00E100E0430900F01D
S315080007D01F00012282402033014941F82320704737
S315080007E000E100E0BFF34F8F0549CA6802F4E062F2
S315080007F0044B1343CB60BFF34F8F00BFFDE700BF29
S3150800080000ED00E00400FA050138B0F1807F0AD255
S31508000810064B5860F021064A82F82310002098609B
S3150800082007221A6070470120704700BF10E000E0F9
S3150800083000ED00E0BFF35F8F044A536A23F4803368
S3150800084053620022024B5A60704700BF00ED00E079
S3150800085090ED00E040F00100054B5860054A536AE8
S3150800086043F480335362BFF34F8FBFF36F8F7047E4
S3150800087090ED00E000ED00E04278154B9A600378B1
S31508000880F3B110B443681249CB60047BC27A1306ED
S3150800089043EA047203781343827A43EAC243427BEB
S315080008A043EA8243827B43EA4243C27B43EA0243EA
S315080008B0427A43EA0223027A43EA42030B6104E0DE
S315080008C0034B0022DA601A6170475DF8044B7047E3
S315080008D090ED00E0024BD868C0F30220704700BFD5
S315080008E000ED00E0F0B4002805DA00F00F00124C25
S315080008F0205C000906E000F1604000F5614090F8D0
S315080009000003000901F00701C1F10706042E28BFFC
S3150800091004260C1D062C8CBF0339002120FA01F78A
S31508000920012404FA06F5013D3D4015608C40013C62
S3150800093004401C60F0BC704714ED00E0430900F069
S315080009401F00012282404033014941F823207047A5
S3150800095000E100E043094033044A52F8232000F03E
S315080009601F0322FA03F000F00100704700E100E0DF
S31508000970430900F01F00012282406033014941F813
S315080009802320704700E100E043098033044A52F807
S31508000990232000F01F0322FA03F000F0010070473D
S315080009A000E100E00428044A13680CBF43F004037E
S315080009B023F004031360704710E000E0704700BF9F
S315080009C008B5FFF7FBFF08BD0268D3B2103B08491C
S315080009D0A1FB03131B090749C95CC165032B22F454
S315080009E07F7222F0030288BF04328265806D7047E9
S315080009F0ABAAAAAA280B010838B50446FFF704FED5
S31508000A00002C00F088800546002384F83430022341
S31508000A1084F835302268136823F0010313600AE06E
S31508000A20FFF7F2FD401B052805D92023636503203F
S31508000A3084F8350038BD23681A6812F0010FEFD123
S31508000A401968364A0A40A06861680843E16808439D
S31508000A502169084361690843A1690843E1690843B4
S31508000A60216A01430A43616A042903D1206BE16ABA
S31508000A7001430A431A6021684B6923F00703626A37
S31508000A801343042A39D1A06A0343E26A002A34D000
S31508000A90A5696DB9012805D008B1022821D1C2F38C
S31508000AA0006223E0B2F1C07F14BF002201221DE0DC
S31508000AB0B5F5005F0ED1032815D8DFE800F0180257
S31508000AC01805C2F3006211E0B2F1C07F14BF00221C
S31508000AD001220BE002280AD9032806D1C2F30062D4
S31508000AE004E0002202E0002200E000222AB14023AE
S31508000AF06365012084F8350038BD4B612046FFF751
S31508000B0063FFE26D3F239340836000206065012305
S31508000B1084F8353038BD012038BD00BF3F8010F05D
S31508000B2030B338B5044690F83530DBB2022B21D005
S31508000B300268136823F001031360036800251D602B
S31508000B4003685D6003689D600368DD6003681D6176
S31508000B50036821225A61FFF737FFE26D3F2393406E
S31508000B608360656584F8355084F83450284638BD66
S31508000B7001207047022038BD30B490F83440012C6B
S31508000B802BD0012480F8344090F83540E4B2012C8B
S31508000B901ED1022480F835400024446505682C6877
S31508000BA024F480242C60046863608368402B04D195
S31508000BB003689A600368D96003E00368996003686C
S31508000BC0DA600268136843F001031360002005E049
S31508000BD0002380F83430022000E0022030BC704741
S31508000BE070B4856D90F83440012C40D0012480F80B
S31508000BF0344090F83540E4B2012C33D1022480F811
S31508000C003540002444650668346824F4802434603A
S31508000C10046863608368402B04D103689A6003689C
S31508000C20D96003E0036899600368DA60C26D3F2300
S31508000C309340AB600268136843F0160313600268BA
S31508000C40536943F080035361036C23B10268136848
S31508000C5043F0080313600268136843F00103136046
S31508000C60002005E0002380F83430022000E002204E
S31508000C7070BC704770B50446866DFFF7C5FC94F8DE
S31508000C803530DBB2022B06D080236365002384F857
S31508000C903430012070BD05462268136823F0160318
S31508000CA013602268536923F080035361236C0BB9E0
S31508000CB0A36C23B12268136823F008031360226823
S31508000CC0136823F0010313600DE0FFF79DFC401B3A
S31508000CD0052808D920236365002384F834300320C7
S31508000CE084F8350070BD23681B6813F0010FECD13A
S31508000CF0E26D3F239340B360002084F8340001235B
S31508000D0084F8353070BD00BF90F83530DBB2022B61
S31508000D1003D08023436501207047052380F83530CA
S31508000D200268136823F0010313600020704700BFB0
S31508000D302DE9F04F83B0044601911546FFF764FC90
S31508000D4094F83530DBB2022B06D080236365002386
S31508000D5084F8343001207BE0834623681B6813F44B
S31508000D60807F04D04FF480736365012070E0019B97
S31508000D701BB9E36D20279F4002E0E36D10279F40D3
S31508000D80A66D33684FF0080ADFF8CC90DFF8CC8000
S31508000D9032E0B5F1FF3F10D02DB1FFF735FCCBEBB4
S31508000DA00000854209D220236365002384F8343085
S31508000DB0012384F8353003204AE03368E26D0AFAE5
S31508000DC002F21A4204D0616D41F001016165B26018
S31508000DD0E26D09FA02F21A4204D0616D41F002018D
S31508000DE06165B260E26D08FA02F21A4204D0616DDA
S31508000DF041F004016165B2603B4203D1636D13F0B3
S31508000E00010FC6D0636D8BB1636D13F0010F0DD062
S31508000E102046FFF72FFFE26D30239340B36000238F
S31508000E2084F83430012084F8350011E0019B53B969
S31508000E30E26D30239340B360002084F83400012328
S31508000E4084F8353004E0E26D10239340B360002047
S31508000E5003B0BDE8F08F00BF0100800004008000E9
S31508000E60F0B583B0044600230193714B1E68876D65
S31508000E703D68C26D082393402B4210D003681A6858
S31508000E8012F0040F0BD01A6822F004021A60C26D21
S31508000E9008239340BB60436D43F001034365E26D4D
S31508000EA0644B93402B4209D02268526912F0800F96
S31508000EB004D0BB60636D43F002036365E26D5E4B6D
S31508000EC093402B4209D02268126812F0020F04D010
S31508000ED0BB60636D43F004036365E26D10239340C2
S31508000EE02B4224D02268126812F0080F1FD0BB606C
S31508000EF023681A6812F4802F0DD01B6813F4002F8C
S31508000F0004D1236C9BB12046984710E0A36C73B1BB
S31508000F10204698470BE01A6812F4807F03D11A68B6
S31508000F2022F008021A60236C0BB120469847E26D3E
S31508000F30202393402B4252D02268126812F0100FD9
S31508000F404DD0BB6094F83530DBB2052B22D1226830
S31508000F50136823F0160313602268536923F080038D
S31508000F605361236C0BB9A36C23B12268136823F071
S31508000F7008031360E26D3F239340BB60002384F8A7
S31508000F803430012384F83530236D002B4DD02046AC
S31508000F9098474AE023681A6812F4802F0DD01B6818
S31508000FA013F4002F04D1636CCBB12046984716E0A2
S31508000FB0E36BA3B12046984711E01A6812F4807FC4
S31508000FC009D11A6822F010021A60002384F8343016
S31508000FD0012384F83530E36B0BB120469847636DDF
S31508000FE01BB3636D13F0010F1BD0052384F835304E
S31508000FF02268136823F001031360104AA2FB063225
S31508001000920A019B013301939A4204D323681B6811
S3150800101013F0010FF5D1002384F83430012384F846
S315080010203530E36C0BB12046984703B0F0BD00BFDE
S31508001030880200200100800004008000B5814E1B54
S3150800104090F83430012B28D0012380F8343090F8FA
S315080010503530DBB2012B18D1052918D8DFE801F0A5
S315080010600306090C0F12C263002311E00264002371
S315080010700EE0426400230BE08264002308E0C264A9
S31508001080002305E00265002302E0012300E00023B7
S31508001090002280F83420184670470220704700BFA7
S315080010A090F83430012B31D0012380F8343090F891
S315080010B03530DBB2012B21D1062921D8DFE801F032
S315080010C004070A0D101316000023C36319E0002352
S315080010D0036416E00023436413E00023836410E0EE
S315080010E00023C3640DE0002303650AE00023C363FD
S315080010F0036443648364C364036502E0012300E078
S315080011000123002280F834201846704702207047D1
S3150800111090F83500704700BF406D704730B484685A
S31508001120802C04D14FF48073436501202EE090F89B
S315080011303440012C27D0012480F8344090F83540FB
S31508001140E4B2012C21D1022480F8354005682C68C8
S3150800115044F480242C60046823610368029C5C6064
S315080011608368402B04D103689A600368D96003E05A
S31508001170036899600368DA600268136843F001033C
S315080011801360002002E0022000E0022030BC704715
S3150800119030B48468802C04D14FF4807343650120F1
S315080011A0B9E3C46B1CB1446C0CB1C46C1CB94023C4
S315080011B043650120AFE390F83440012C00F0AA8380
S315080011C0012480F8344090F83540E4B2012C40F010
S315080011D09C83022480F835400024446505682C6801
S315080011E044F480242C60046823610368029C5C60D4
S315080011F08368402B04D103689A600368D96003E0CA
S31508001200036899600368DA600368B94A934228D983
S3150800121023F48063A2F58962934213D06032934225
S3150800122012D0483A934211D06032934211D0483ACC
S31508001230934211D0603293420CBF4FF400134FF023
S3150800124000630BE0202309E0202307E04FF4006346
S3150800125004E04FF4006301E04FF40013A54AD3609D
S315080012607CE0A54A934227D923F48063A83A93429F
S3150800127013D06032934212D0483A934211D060326A
S31508001280934211D0483A934211D0603293420CBF30
S315080012904FF400134FF000630BE0202309E02023EE
S315080012A007E04FF4006304E04FF4006301E04FF4F5
S315080012B00013904A936051E0904A934227D923F449
S315080012C08063483A934213D06032934212D0483A28
S315080012D0934211D06032934211D0483A934211D0CA
S315080012E0603293420CBF4FF400134FF000630BE0DB
S315080012F0202309E0202307E04FF4006304E04FF4BD
S31508001300006301E04FF400137D4AD36026E023F41E
S3150800131080637C4A934213D06032934212D0483A93
S31508001320934211D06032934211D0483A934211D079
S31508001330603293420CBF4FF400134FF000630BE08A
S31508001340202309E0202307E04FF4006304E04FF46C
S31508001350006301E04FF40013694A93600368644A26
S31508001360934228D923F48063A2F58962934213D065
S315080013706032934212D0483A934211D06032934277
S3150800138011D0483A934211D0603293420CBF4FF4C1
S3150800139080134FF080630BE0102309E0102307E069
S315080013A04FF4806304E04FF4806301E04FF4801348
S315080013B0504AD3607CE0504A934227D923F480638D
S315080013C0A83A934213D06032934212D0483A9342D5
S315080013D011D06032934211D0483A934211D060320C
S315080013E093420CBF4FF480134FF080630BE0102339
S315080013F009E0102307E04FF4806304E04FF48063AC
S3150800140001E04FF480133B4A936051E03B4A934214
S3150800141027D923F48063483A934213D06032934223
S3150800142012D0483A934211D06032934211D0483ACA
S31508001430934211D0603293420CBF4FF480134FF0A1
S3150800144080630BE0102309E0102307E04FF4806364
S3150800145004E04FF4806301E04FF48013284AD36018
S3150800146026E023F48063274A934213D060329342DE
S3150800147012D0483A934211D06032934211D0483A7A
S31508001480934211D0603293420CBF4FF480134FF051
S3150800149080630BE0102309E0102307E04FF4806314
S315080014A004E04FF4806301E04FF48013144A93601C
S315080014B003680F4A934234D923F48063A2F58962FC
S315080014C0934213D0603293421ED0483A93421DD0BD
S315080014D0603293421DD0483A93421DD060329342FF
S315080014E00CBF4FF400234FF0007317E0082315E0F4
S315080014F05864024000640240B860024058600240E6
S315080015000060024010600240082307E04FF40073B1
S3150800151004E04FF4007301E04FF40023AA4AD360B5
S315080015207CE0AA4A934227D923F48063A83A9342D7
S3150800153013D06032934212D0483A934211D06032A7
S31508001540934211D0483A934211D0603293420CBF6D
S315080015504FF400234FF000730BE0082309E008233B
S3150800156007E04FF4007304E04FF4007301E04FF412
S315080015700023954A936051E0954A934227D923F46C
S315080015808063483A934213D06032934212D0483A65
S31508001590934211D06032934211D0483A934211D007
S315080015A0603293420CBF4FF400234FF000730BE0F8
S315080015B0082309E0082307E04FF4007304E04FF41A
S315080015C0007301E04FF40023824AD36026E023F437
S315080015D08063814A934213D06032934212D0483ACC
S315080015E0934211D06032934211D0483A934211D0B7
S315080015F0603293420CBF4FF400234FF000730BE0A8
S31508001600082309E0082307E04FF4007304E04FF4C9
S31508001610007301E04FF400236E4A936003686F4A33
S31508001620934228D923F48063A2F58962934213D0A2
S315080016306032934212D0483A934211D060329342B4
S3150800164011D0483A934211D0603293420CBF4FF4FE
S3150800165080234FF080730BE0614B09E0604B07E095
S315080016604FF4807304E04FF4807301E04FF4802355
S31508001670554AD3607CE0554A934227D923F48063C0
S31508001680A83A934213D06032934212D0483A934212
S3150800169011D06032934211D0483A934211D0603249
S315080016A093420CBF4FF480234FF080730BE04C4BF2
S315080016B009E04B4B07E04FF4807304E04FF4807366
S315080016C001E04FF48023404A936051E0404A934238
S315080016D027D923F48063483A934213D06032934261
S315080016E012D0483A934211D06032934211D0483A08
S315080016F0934211D0603293420CBF4FF480234FF0CF
S3150800170080730BE0364B09E0354B07E04FF48073E6
S3150800171004E04FF4807301E04FF480232D4AD36030
S3150800172026E023F480632C4A934213D06032934216
S3150800173012D0483A934211D06032934211D0483AB7
S31508001740934211D0603293420CBF4FF480234FF07E
S3150800175080730BE0224B09E0214B07E04FF48073BE
S3150800176004E04FF4807301E04FF48023194A936034
S3150800177003681A4A934237D923F48063A2F589622B
S31508001780934213D06032934212D0483A934211D012
S315080017906032934210D0483A93420FD06032934257
S315080017A00CBF4FF480334FF4800309E00D4B07E07C
S315080017B00C4B05E0402303E0402301E04FF480335F
S315080017C0014AD36087E000BF00640240B860024067
S315080017D058600240006002401060024058640240AF
S315080017E004008000010080004C4A934225D923F466
S315080017F08063A83A934213D06032934212D0483A93
S31508001800934211D06032934210D0483A93420FD097
S31508001810603293420CBF4FF480334FF4800309E0E3
S315080018203F4B07E03E4B05E0402303E0402301E041
S315080018304FF480333B4A93604DE03B4A934225D9A7
S3150800184023F48063483A934213D06032934212D00D
S31508001850483A934211D06032934210D0483A9342A4
S315080018600FD0603293420CBF4FF480334FF480039D
S3150800187009E02B4B07E02A4B05E0402303E0402311
S3150800188001E04FF48033294AD36024E023F48063CF
S31508001890274A934213D06032934212D0483A934271
S315080018A011D06032934210D0483A93420FD060323A
S315080018B093420CBF4FF480334FF4800309E0184B72
S315080018C007E0174B05E0402303E0402301E04FF40F
S315080018D08033164A93600268136843F01603136050
S315080018E00268536943F080035361036C0BB9836C38
S315080018F023B10268136843F008031360026813688B
S3150800190043F001031360002005E0002380F834301B
S31508001910022000E0022030BC704700BFB8600240D9
S3150800192001008000006402405860024000600240E6
S315080019301060024012B90368D96001E003681961B2
S315080019400020704710B409490C6924F440740C61EE
S315080019500C6944F440740C610C6944F001040C6190
S31508001960026043605DF8044B704700BF003C0240CC
S31508001970074B1A6922F440721A611A6942F4007216
S315080019801A611A6942F001021A610160704700BFC4
S31508001990003C0240074B1A6922F440721A611A6920
S315080019A042F480721A611A6942F001021A610180D2
S315080019B0704700BF003C0240274BDB6813F0100F4E
S315080019C007D0264AD36943F01003D3611022224B6D
S315080019D0DA60214BDB6813F0200F07D01F4AD36962
S315080019E043F00803D36120221B4BDA601A4BDB68ED
S315080019F013F0400F07D0194AD36943F00403D361A3
S31508001A004022154BDA60144BDB6813F0800F07D0C1
S31508001A10124AD36943F00203D36180220E4BDA607F
S31508001A200D4BDB6813F4807F08D00C4AD36943F06A
S31508001A300103D3614FF48072074BDA60064BDB680B
S31508001A4013F0020F07D0054AD36943F02003D36188
S31508001A500222014BDA607047003C02408C410020AC
S31508001A6070B51D4C247E012C33D01B4D01242C76D9
S31508001A701A4C266946F080762661266946F0007675
S31508001A80266103242C70696170B9D2B2134B1869A8
S31508001A9020F44070186118691861186940F001004F
S31508001AA018610A70002070BD012805D1084691B258
S31508001AB0FFF770FF002070BD022805D108461146C1
S31508001AC0FFF756FF002070BD0846FFF73BFF0020D2
S31508001AD070BD022070BD00BF8C410020003C024052
S31508001AE0704700BF704700BF10B53A4BDB6813F468
S31508001AF0F97F1AD0384B1B78DBB2012B05D1364B50
S31508001B00DC684FF0FF32DA6007E0334B1B78DBB254
S31508001B10022B314B0CBF1C695C69FFF74DFF204651
S31508001B20FFF7E0FF00222C4B1A702A4BDB6813F0F4
S31508001B30010F38D00122274BDA60274B1B78DBB21E
S31508001B4093421DD1244B5A68013A5A605B685BB1CF
S31508001B50214CE068FFF7C4FFE3680133E360E068FF
S31508001B60217A00F0F3F91EE01B4B4FF0FF34DC60DE
S31508001B7000221A7000F050FA2046FFF7B1FF12E073
S31508001B80154B1B78DBB2022B06D100F045FA124B37
S31508001B901869FFF7A5FF03E00F4B5869FFF7A0FF89
S31508001BA000220D4B1A700C4B1B7813F0FF0F0FD148
S31508001BB0084B1A6922F0FF021A611A6922F080722C
S31508001BC01A611A6922F000721A610022024B1A760B
S31508001BD010BD00BF003C02408C410020064B1B692B
S31508001BE0002B07DA044B054A5A6002F188325A601C
S31508001BF00020704701207047003C024023016745DA
S31508001C00034A136943F0004313610020704700BF7D
S31508001C10003C0240074B5B6913F0010F07D0054BE8
S31508001C20054A9A6002F144329A6000207047012002
S31508001C30704700BF003C02403B2A1908034A536913
S31508001C4043F0010353610020704700BF003C024087
S31508001C50014BD869704700BF8C41002070B5044617
S31508001C600022154BDA61FEF7CFFC0646134D08E055
S31508001C70B4F1FF3F05D0CCB1FEF7C6FC801B844209
S31508001C8016D3EB6813F4803FF2D10C4BDB6813F0E4
S31508001C90010F02D00122094BDA60084BDB6813F406
S31508001CA0F97F07D0FFF788FE012070BD032070BDBD
S31508001CB0032070BD002070BD8C410020003C02400E
S31508001CC0F8B51F46214B1B7E012B3CD004460E4619
S31508001CD0154601221D4B1A764CF25030FFF7BEFF0F
S31508001CE0034658BB6CB9EDB2194B1A6922F4407217
S31508001CF01A611A691A611A6942F001021A61357085
S31508001D0012E0012C04D13046A9B2FFF743FE0BE0DE
S31508001D10022C04D130462946FFF72AFE04E0304655
S31508001D202A463B46FFF70EFE4CF25030FFF796FF69
S31508001D30034607490A6922F001020A610021034A9B
S31508001D4011761846F8BD0220F8BD00BF8C41002068
S31508001D50003C024008B5054A137843F002031370A5
S31508001D604CF25030FFF77AFF08BD00BF143C024022
S31508001D70074B1A6922F440721A611A6942F0040282
S31508001D801A611A6942F4803242EA002018617047E3
S31508001D90003C024038B5334B1B7E012B60D004460D
S31508001DA00122304B1A76036813F0010F1DD04368E1
S31508001DB093420DD185684CF25030FFF74FFF03462A
S31508001DC0A0B929490A8892B222EA05020A800DE0DA
S31508001DD085684CF25030FFF741FF034630B9224977
S31508001DE00A882A4392B20A8000E00123226812F088
S31508001DF0020F09D025694CF25030FFF72FFF034632
S31508001E0010B9EDB2194A1570226812F0040F14D0F1
S31508001E10257E4CF25030FFF721FF034668B9144877
S31508001E20027805F0400102F01F020A4305F020017E
S31508001E300A4325F07F0515430570226812F0080F3E
S31508001E4009D0227D0A4B197801F0F3011970197827
S31508001E500A431A7000230021024A1176184638BD33
S31508001E60022038BD8C410020163C0240153C024039
S31508001E70143C02400F2303600E4B1B889BB2836001
S31508001E800D4B1B78DBB2CC2B07D00B4B1B78DBB288
S31508001E90552B0CBF5523AA2300E0CC230361074B1F
S31508001EA05B6923F01F030376054B1B7803F00C03CD
S31508001EB043617047163C0240153C0240003C024014
S31508001EC0143C0240036813F0010F1ED010B5436896
S31508001ED0012B0CD104894CF25030FFF7BFFE0346A4
S31508001EE0B0B90C490A8892B214430C8010E00489F0
S31508001EF04CF25030FFF7B2FE034648B905490A8846
S31508001F0092B222EA04020A8002E0012318467047C8
S31508001F10184610BD163C0240014B1B8803817047CA
S31508001F20163C0240034A137843F0800313700020DE
S31508001F30704700BF173C0240034A137803F07F033B
S31508001F4013700020704700BF173C024010B441B11F
S31508001F50012908D002290CBF4FF400744FF44074CD
S31508001F6003E0002401E04FF480740F4B196921F453
S31508001F70407119611A6922431A611A6922F0F80236
S31508001F801A61F82292FAA2F2B2FA82F2196941F0BB
S31508001F9002019040084318611A6942F480321A61B6
S31508001FA05DF8044B704700BF003C0240184A127E99
S31508001FB0012A2BD008B503460121154A1176154A80
S31508001FC0116941F080711161116941F00071116167
S31508001FD0F321D1600268012A0AD10D4A0221117043
S31508001FE041681161007C5968FFF7C2FE002008BDF0
S31508001FF0074A01211170C16851608168D160017C6E
S3150800200011728068FFF7A2FF002008BD0220704702
S315080020108C410020003C0240164B1B6813F4007FDD
S3150800202010D0144B1A6822F400721A601A6842F427
S3150800203000621A601A6822F400621A601A6842F48A
S3150800204000721A600B4B1B6813F4806F10D0094B93
S315080020501A6822F480621A601A6842F480521A607A
S315080020601A6822F480521A601A6842F480621A606A
S31508002070704700BF003C02402DE9F843264B1B7E03
S31508002080012B45D00F4604460122234B1A764CF203
S315080020905030FFF7E3FD8146002833D14FF0FF3378
S315080020A03B602368012B0ED1207C6168FFF760FE38
S315080020B04CF25030FFF7D2FD8146184A136923F0D7
S315080020C0040313611CE0A568E3682B449D4217D2FC
S315080020D04CF25038114E2846217CFFF737FF404610
S315080020E0FFF7BCFD336923F0FA033361814608B173
S315080020F03D6005E00135A268E3681344AB42EAD8BF
S31508002100FFF78AFF0022044B1A764846BDE8F88393
S315080021100220BDE8F88300BF8C410020003C024045
S315080021202DE9F04F83B0002301274FF00309DFF8AC
S3150800213090E1DFF890A1604E8446984607FA03F0CE
S315080021400A680240824240F0AF80486820F01000DA
S31508002150022811D1DC080CEB8404256A03F0070B6E
S315080021604FEA8B0B0F2000FA0BF025EA00050869E9
S3150800217000FA0BF028432062DCF800005D0009FA3B
S3150800218005F4E44304EA000B486800F00300A8409D
S315080021904BEA0000CCF80000486820F0100001382F
S315080021A0012816D8DCF8080004EA000BC868A8401D
S315080021B04BEA0000CCF80800DCF8040020EA020B21
S315080021C04868C0F3001000FA08F04BEA0000CCF8A3
S315080021D00400DCF80C0004408868A8402043CCF8CA
S315080021E00C00486810F0805F5ED000200190DEF891
S315080021F0440040F48040CEF84400DEF8440000F481
S3150800220080400190019823F0030000F1804000F51A
S315080022109C30856803F003084FEA88080F2404FAFF
S3150800222008F425EA0405D44511D0244CA44510D059
S3150800223004F58064A4450ED004F58064A4450CD04A
S3150800224004F58064A4450CBF0424072406E0002492
S3150800225004E03C4602E0022400E04C4604FA08F496
S315080022602C4384603068D5434C6814F4803F0CBF17
S3150800227028401043306070684C6814F4003F0CBF67
S31508002280284010437060B0684C6814F4801F0CBF77
S3150800229028401043B060F0684C6814F4001F0CBF67
S315080022A005EA00020243F2600133102B7FF445AFC2
S315080022B003B0BDE8F08F00BF003C014000040240B7
S315080022C000380240000002402DE9F04F83B0002399
S315080022D04FF0010E4FF0030A4FF00F09DFF8F0B088
S315080022E0DFF8F0800EFA03F202EA0104944266D19E
S315080022F005685A000AFA02F2D24315400560DD085D
S3150800230000EB85052E6A03F00707BF0009FA07F7F1
S3150800231026EA07062E628568154085604568E44307
S3150800232025404560C5682A40C26023F0030202F1D1
S31508002330804202F59C32966803F00305AD0009FA5F
S3150800234005F73E400196584513D0204EB04213D0AB
S3150800235006F58066B04211D006F58066B04210D008
S3150800236006F58066B0420CBF4FF0040C4FF0070C20
S3150800237008E04FF0000C05E0F44603E04FF0020CCD
S3150800238000E0D4460CFA05F5019EB54217D19568CA
S3150800239025EA07079760D8F800202240C8F80020E9
S315080023A0D8F804202240C8F80420D8F8082022408B
S315080023B0C8F80820D8F80C201440C8F80C40013397
S315080023C0102B8FD103B0BDE8F08F00BF0004024088
S315080023D000000240003C01400369194214BF012075
S315080023E0002070470AB1816170470904816170470E
S315080023F0436959404161704782B04FF48033019375
S31508002400019B0B430193019BC361C161019BC3619E
S31508002410C3690193C06980F48030C0F3004002B0FC
S31508002420704700BF704700BF08B5044B5B69184288
S3150800243003D0024B5861FFF7F5FF08BD003C014089
S31508002440044B1A6A42F080521A621A6A22F08052C3
S315080024501A627047003802404FF4807393FAA3F368
S31508002460B3FA83F303F1845303F560339B00012227
S315080024701A6070474FF4807393FAA3F3B3FA83F3A1
S3150800248003F1845303F560339B0000221A607047FA
S315080024901E490B6823F0E002036813430B601C4BCC
S315080024A05A6822F480325A601A6822F480321A6016
S315080024B09A6822F480329A60DA6822F48032DA6006
S315080024C0436813F4803F04D0114A136843F48033F9
S315080024D01360436813F4003F04D00D4A536843F46D
S315080024E080335360436813F0010F04D0084A936899
S315080024F043F480339360436813F0020F04D0044A10
S31508002500D36843F48033D360704700BF007000403F
S31508002510003C0140102393FAA3F3B3FA83F303F1C3
S31508002520845303F560339B0001221A60704700BF8D
S31508002530102393FAA3F3B3FA83F303F1845303F551
S3150800254060339B0000221A60704700BF024A536836
S3150800255018435060704700BF00700040024A536835
S3150800256023EA00005060704700700040064A13696D
S3150800257023F004031361012901D130BF704740BF1E
S3150800258020BF20BF704700BF00ED00E00B4A13686C
S3150800259023F0030318431060094A136943F0040340
S315080025A01361012901D130BF02E040BF20BF20BF1F
S315080025B0034A136923F0040313617047007000404F
S315080025C000ED00E0054A136843F002031360044A6D
S315080025D0136943F00403136130BF7047007000406D
S315080025E000ED00E0704700BF08B5064B5B6913F4C1
S315080025F0803F05D0FFF7F6FF4FF48032014B5A6152
S3150800260008BD00BF003C0140024A136943F00203BB
S315080026101361704700ED00E0024A136923F00203D4
S315080026201361704700ED00E0024A136943F0100396
S315080026301361704700ED00E0024A136923F01003A6
S315080026401361704700ED00E038B54FF4007292FA56
S31508002650A2F2B2FA82F20C4B13449B0001221A60D2
S31508002660FDF7D2FF0546094C05E0FDF7CDFF401BF7
S31508002670B0F57A7F05D8636813F0080FF5D0002007
S3150800268038BD032038BD00BF20808310007000408D
S3150800269038B54FF4007292FAA2F2B2FA82F20C4BF3
S315080026A013449B0000221A60FDF7AEFF0546094C4D
S315080026B005E0FDF7A9FF401BB0F57A7F05D86368EA
S315080026C013F0080FF5D1002038BD032038BD00BF30
S315080026D020808310007000404FF4007393FAA3F330
S315080026E0B3FA83F303F1845303F560339B000122A5
S315080026F01A6070474FF4007393FAA3F3B3FA83F39F
S3150800270003F1845303F560339B0000221A60704777
S31508002710024B186800F44040704700BF0070004044
S3150800272070B582B0002300932C4B1A6C42F080528D
S315080027301A641A6C02F080520092009A9B6803F0A1
S315080027400C03082B40D006460022254B1A60FDF7DD
S315080027505BFF0546214C04E0FDF756FF401B0228A7
S3150800276034D8236813F0007FF6D1002301931D4A5D
S31508002770136823F4404333431360136803F4404358
S315080027800193019B0122164B1A60FDF73DFF054692
S31508002790124C04E0FDF738FF401B022818D82368BE
S315080027A013F0007FF6D0FDF72FFF05460D4C05E028
S315080027B0FDF72AFF401BB0F57A7F0BD8636813F440
S315080027C0804FF5D0002006E0012004E0032002E057
S315080027D0032000E0032002B070BD00BF00380240AD
S315080027E060004742007000404FF4006393FAA3F379
S315080027F0B3FA83F303F1845303F560339B00012294
S315080028001A6070474FF4006393FAA3F3B3FA83F39D
S3150800281003F1845303F560339B0000221A60704766
S315080028204FF4806393FAA3F3B3FA83F303F1845363
S3150800283003F560339B0001221A6070474FF48063EA
S3150800284093FAA3F3B3FA83F303F1845303F56033DE
S315080028509B0000221A607047704700BFF0B583B02E
S315080028600446036813F0010F5AD0A14B9B6803F086
S315080028700C03042B0AD09E4B9B6803F00C03082B11
S315080028800DD19B4B5B6813F4800F08D0984B1B68DF
S3150800289013F4003F44D06368002B41D19DE163687F
S315080028A0B3F5803F05D1924A136843F48033136029
S315080028B015E0B3F5A02F09D18D4B1A6842F4802292
S315080028C01A601A6842F480321A6008E0884B1A685F
S315080028D022F480321A601A6822F480221A60636829
S315080028E07BB1FDF791FE0646814D05E0FDF78CFEAE
S315080028F0801B642800F273812B6813F4003FF5D01F
S315080029000EE0FDF781FE0646794D05E0FDF77CFEF3
S31508002910801B642800F265812B6813F4003FF5D10B
S31508002920236813F0020F5AD0714B9B6813F00C0FF3
S315080029300AD06F4B9B6803F00C03082B1BD16C4B1A
S315080029405B6813F4800F16D1694B1B6813F0020FEE
S3150800295003D0E368012B40F0468165480268F821F8
S3150800296091FAA1F1B1FA81F123698B4022F0F802BC
S315080029701343036033E0E368FBB101225D4B1A6041
S31508002980FDF742FE06465A4D05E0FDF73DFE801B63
S31508002990022800F22A812B6813F0020FF5D054485A
S315080029A00268F82191FAA1F1B1FA81F123698B4005
S315080029B022F0F8021343036011E000224D4B1A601F
S315080029C0FDF722FE06464A4D05E0FDF71DFE801B73
S315080029D0022800F20C812B6813F0020FF5D1236848
S315080029E013F0080F26D0636993B10122424B1A608F
S315080029F0FDF70AFE06463E4D05E0FDF705FE801B7F
S31508002A00022800F2F6806B6F13F0020FF5D011E082
S31508002A100022394B1A60FDF7F7FD0646344D05E0EE
S31508002A20FDF7F2FD801B022800F2E5806B6F13F0BC
S31508002A30020FF5D1236813F0040F6AD0002301931F
S31508002A402B4B1A6C42F080521A641B6C03F08053AD
S31508002A500193019B294A136843F480731360FDF7B9
S31508002A60D3FD0646254D05E0FDF7CEFD801B022861
S31508002A7000F2C3802B6813F4807FF5D0A368012B7E
S31508002A8005D11B4A136F43F00103136714E0052BA6
S31508002A9009D1174B1A6F42F004021A671A6F42F0EF
S31508002AA001021A6708E0124B1A6F22F001021A6730
S31508002AB01A6F22F004021A67A3688BB1FDF7A4FD0A
S31508002AC007460B4D41F2883605E0FDF79DFDC01B14
S31508002AD0B04200F294802B6F13F0020FF5D018E085
S31508002AE0FDF792FD0746024D41F288360DE000BF1C
S31508002AF00038024000004742800E474200700040FE
S31508002B00FDF782FDC01BB0427BD82B6F13F0020F76
S31508002B10F6D1A369002B76D0404A926802F00C02DF
S31508002B20082A72D0022B45D100223D4B1A60FDF7C8
S31508002B306BFD0646394D04E0FDF766FD801B02284D
S31508002B4065D82B6813F0007FF6D147F6C07595FA5D
S31508002B50A5F5B5FA85F54FF4403090FAA0F0B0FA2D
S31508002B6080F04FF0706191FAA1F1B1FA81F1226A11
S31508002B70E3691A43636AAB401A43A36A5B08013BDD
S31508002B8083401343E26A8A401343244A536001226E
S31508002B90234B1A60FDF738FD0546204C04E0FDF787
S31508002BA033FD401B022834D8236813F0007FF6D083
S31508002BB0002031E000221A4B1A60FDF725FD054674
S31508002BC0164C04E0FDF720FD401B022823D8236895
S31508002BD013F0007FF6D100201EE001201CE0032040
S31508002BE01AE0032018E0012016E0032014E0032071
S31508002BF012E0032010E003200EE003200CE003207F
S31508002C000AE0032008E0002006E0012004E0032093
S31508002C1002E0032000E0032003B0F0BD00380240C4
S31508002C206000474270B588B00D461646F8B90023CD
S31508002C300193204C226B42F001022263226B02F0C0
S31508002C4001020192019A4FF48072039202220492C1
S31508002C500322069205930793174803A9FFF760FA1C
S31508002C60A26822F0EC6232431543A5601FE00023F8
S31508002C700293104C226B42F004022263226B02F08C
S31508002C8004020292029A4FF40072039202220492FC
S31508002C900322069205930793084803A9FFF740FA0B
S31508002CA0A36845EAC60223F078431A43A26008B02F
S31508002CB070BD00BF00380240000002400008024014
S31508002CC00122014B1A6070474C0047420022014B13
S31508002CD01A6070474C004742214B9B6803F00C036F
S31508002CE0042B02D0082B02D038E01E4870471C4936
S31508002CF04A6802F03F03496811F4800F0FD0184A5A
S31508002D00506847F6C07191FAA1F2B2FA82F2084009
S31508002D10D0401449B1FBF3F202FB00F30EE0104A6F
S31508002D20506847F6C07191FAA1F2B2FA82F20140F0
S31508002D30D1400D4AB2FBF3F202FB01F3084A506890
S31508002D404FF4403292FAA2F2B2FA82F200F440301C
S31508002D50D04001304000B3FBF0F07047024870479E
S31508002D600038024040787D010024F4002DE9F04146
S31508002D7004460D466C4B1B6803F00F038B4208D2C2
S31508002D80CBB2694A1370136803F00F038B4240F005
S31508002D90AF80236813F0020F06D064498B6823F0CE
S31508002DA0F002A36813438B60236813F0010F63D006
S31508002DB06368012B05D15D4A126812F4003F0FD1F2
S31508002DC099E09A1E012A05D8584A126812F0007F1F
S31508002DD006D193E0554A126812F0020F00F091806E
S31508002DE052498A6822F0030213438B60FDF70CFCF4
S31508002DF006466368012B0FD105E0FDF705FC801B2D
S31508002E00404503D980E0494F41F28838BB6803F052
S31508002E100C03042BF1D12FE0022B0FD105E0FDF7AF
S31508002E20F3FB801B404503D971E0404F41F28838D7
S31508002E30BB6803F00C03082BF1D11DE0032B09D066
S31508002E403A4F41F2883813E0FDF7DEFB801B404518
S31508002E5003D95FE0354F41F28838BB6803F00C03AD
S31508002E600C2BF1D108E0FDF7CFFB801B404554D869
S31508002E70BB6813F00C0FF6D12B4B1B6803F00F033E
S31508002E809D4207D2EAB2284B1A701B6803F00F035B
S31508002E90AB4245D1236813F0040F06D023498B684B
S31508002EA023F4E052E36813438B60236813F0080F9A
S31508002EB007D01E4A9368216923F4604343EAC10395
S31508002EC09360FFF709FF194B9B68F02292FAA2F26A
S31508002ED0B2FA82F203F0F003D340154AD35CD84025
S31508002EE0144B18600020FDF757FB0020BDE8F08161
S31508002EF00120BDE8F0810120BDE8F0810120BDE890
S31508002F00F0810120BDE8F0810320BDE8F0810320AF
S31508002F10BDE8F0810320BDE8F0810320BDE8F0811B
S31508002F200120BDE8F08100BF003C024000380240A5
S31508002F30300B010888020020014B1868704700BF53
S31508002F4088020020084B9B684FF4E05292FAA2F2DE
S31508002F50B2FA82F203F4E053D340044AD35C044A3B
S31508002F601068D840704700BF00380240400B01087F
S31508002F7088020020084B9B684FF4604292FAA2F23E
S31508002F80B2FA82F203F46043D340044AD35C044A9B
S31508002F901068D840704700BF00380240400B01084F
S31508002FA08802002010B40F230360394B1B6813F402
S31508002FB0802F03D04FF4A023436008E0344B1B68EE
S31508002FC013F4803F14BF4FF4803300234360304B23
S31508002FD01B6813F0010F14BF01230023C3602C499B
S31508002FE00B68F82292FAA2F2B2FA82F203F0F80318
S31508002FF0D34003610B6F13F0040F02D005238360DF
S3150800300007E0234B1B6F13F0010F14BF01230023A6
S3150800301083601F4B5B6F13F0010F14BF012300235E
S3150800302043611B4B1B6813F0807F14BF02230123E7
S315080030308361174A536803F48003C361536803F036
S315080030403F030362546847F6C07393FAA3F1B1FAD3
S3150800305081F12340CB40436253684FF4403191FAE3
S31508003060A1F1B1FA81F103F4403303F580335B0033
S31508003070CB40836253684FF0706292FAA2F2B2FABA
S3150800308082F203F07063D340C3625DF8044B704765
S31508003090003802400F2303600B4B9A6802F00302C4
S315080030A042609A6802F0F00282609A6802F4E0527E
S315080030B0C2609B6803F46043DB080361034B1B682B
S315080030C003F00F030B60704700380240003C0240D3
S315080030D0704700BF08B5054BDB6813F0800F04D0B6
S315080030E0FFF7F6FF8022024B1A7008BD003802402F
S315080030F00E380240F0B583B00446036813F0050F96
S3150800310039D000225A4B1A60FDF77EFA0646594D09
S3150800311005E0FDF779FA801B022800F29D802B68EE
S3150800312013F0006FF5D147F6C07191FAA1F1B1FA23
S3150800313081F14FF0E04292FAA2F2B2FA82F2A36863
S3150800314003FA01F1E36893400B4362681343494A63
S31508003150C2F884300122464B1A60FDF755FA064636
S31508003160444D04E0FDF750FA801B022876D82B68F8
S3150800317013F0006FF6D0236813F0020F63D0002314
S3150800318001933C4B1A6C42F080521A641B6C03F094
S3150800319080530193019B384A136843F48073136084
S315080031A0FDF732FA0646344D04E0FDF72DFA801B8A
S315080031B0022855D82B6813F4807FF6D02D4B1B6F49
S315080031C013F4407322D0226902F440729A421DD049
S315080031D0284B1A6F22F44072284901200860002003
S315080031E008601A671B6F13F0010F0FD0FDF70CFA72
S315080031F00746204D41F2883604E0FDF705FAC01B64
S31508003200B0422FD82B6F13F0020FF6D0236903F4C0
S315080032104072B2F5407F0AD116498A6823F0704396
S3150800322023F4407322F4F81213438B6004E0114A26
S31508003230936823F4F81393600E490A6F2369C3F35E
S315080032400B0313430B67236813F0080F0CD0227D7A
S315080032500B4B1A60002008E0032006E0032004E078
S31508003260032002E0032000E0002003B0F0BD00BF09
S31508003270680047420038024000700040400E47424E
S31508003280E011474210B403230360184BD3F8844077
S3150800329047F6C07292FAA2F1B1FA81F12240CA4009
S315080032A08260D3F884204FF0E04191FAA1F1B1FA97
S315080032B081F102F0E042CA40C260D3F8842002F0ED
S315080032C03F0242609A68196F01F4407102F4F812DD
S315080032D00A430261D3F88C3013F0807F0CBF0023B9
S315080032E0012303755DF8044B704700BF00380240A0
S315080032F0012825D1134B9B6813F4000304D0012B36
S31508003300114818BF002070470E4B5B6813F4800FF6
S315080033100C4BD3F8842002F03F0214BF0B4B0C4B26
S31508003320B3FBF2F20749D1F88430D1F88400C3F32D
S31508003330881303FB02F3C0F30270B3FBF0F0704787
S3150800334000207047003802400080BB0040787D01AD
S315080033500024F4000128044A136F0CBF43F0080345
S3150800336023F0080313677047003802400F4B1A68AA
S3150800337042F081021A60002199601A6822F0A1625F
S3150800338022F4A0221A6059605868094A02435A6012
S31508003390C3F88410D3F88400064A0243C3F884208D
S315080033A0D960054A054B1A60704700BF00380240CD
S315080033B010300004103000200024F4008802002099
S315080033C070B4036A23F001030362036A46688269DC
S315080033D022F073020C6842EA040523F002028B68A5
S315080033E013430B4CA0420BD123F00803CA681343BE
S315080033F023F0040326F440768C694A69224316436F
S31508003400466085614A684263036270BC704700BFC4
S315080034100000014030B4036A23F480730362036A30
S315080034204468C26922F073020D682A4323F40073C4
S315080034308D6843EA05230C4DA8420ED123F4006398
S31508003440CD6843EA052323F4806324F440544D6988
S3150800345044EA05148D6944EA05144460C2614A6861
S31508003460C263036230BC70470000014030B4036A8F
S3150800347023F480530362036A4468C26922F4E6426D
S315080034800D6842EA052223F400538D6843EA0533A2
S31508003490074DA84204D124F480444D6944EA8514B2
S315080034A04460C2614A680264036230BC704700BF68
S315080034B00000014030B40468A36823F070024B682A
S315080034C0134323F007030A681343A3604B68502B82
S315080034D025D002D8402B11D047E0602B32D0702B74
S315080034E043D10468A2688868CB68184322F47F43EE
S315080034F003430A6943EA0223A36036E003681C6AA9
S315080035001A6A22F001021A620268936923F0F0032C
S31508003510096943EA0113936103681C6225E003689D
S3150800352088680D69196A1C6A24F001041C629A6984
S3150800353022F0F00242EA051221F00A0101439A61DB
S31508003540196212E003688C680D69186A20F0100089
S31508003550186299691A6A21F4704141EA053122F024
S31508003560A00242EA041299611A6230BC704700BF91
S31508003570704700BF704700BF10B50446022380F8A5
S3150800358039300368196A41F21112114208D1196AD1
S3150800359040F24442114203D11A6822F001021A602D
S315080035A02046FFF7E7FF002084F8390084F8380042
S315080035B010BD00BF022380F839300268136843F053
S315080035C001031360012380F839300020704700BFDB
S315080035D0022380F839300368196A41F21112114240
S315080035E008D1196A40F24442114203D11A6822F0FE
S315080035F001021A60012380F839300020704700BFA5
S315080036000268D36843F00103D3600268136843F085
S3150800361001031360002070470268D36823F0010392
S31508003620D3600368196A41F21112114208D1196A66
S3150800363040F24442114203D11A6822F001021A608C
S315080036400020704738B590F83950EDB2022D22D0D7
S3150800365090F83930DBB2012B04D101B9EAB902235B
S3150800366080F8393013460446C2690D48D063E269CA
S315080036700C48D0642268E0692C32FDF7B1FA22685A
S31508003680D36843F48073D3602268136843F0010358
S315080036901360002038BD022038BD012038BD00BFA8
S315080036A0B53F0008E54100080268D36823F4807333
S315080036B0D3600368196A41F21112114208D1196AD6
S315080036C040F24442114203D11A6822F001021A60FC
S315080036D0012380F839300020704700BF704700BFCB
S315080036E0704700BF10B50446022380F839300368D6
S315080036F0196A41F21112114208D1196A40F244427C
S31508003700114203D11A6822F001021A602046FFF717
S31508003710E7FF002084F8390084F8380010BD00BFA0
S31508003720704700BF704700BF10B50446022380F8F3
S3150800373039300368196A41F21112114208D1196A1F
S3150800374040F24442114203D11A6822F001021A607B
S315080037502046FFF7E7FF002084F8390084F8380090
S3150800376010BD00BF704700BF704700BF10B50446C4
S31508003770022380F839300368196A41F2111211429E
S3150800378008D1196A40F24442114203D11A6822F05C
S3150800379001021A602046FFF7E7FF002084F8390087
S315080037A084F8380010BD00BF704700BF704700BFDF
S315080037B010B50446022380F839300368196A41F2C5
S315080037C01112114208D1196A40F24442114203D13A
S315080037D01A6822F001021A602046FFF7E7FF002068
S315080037E084F8390084F8380010BD00BF704700BF60
S315080037F0704700BF10B50446022380F839300368C5
S31508003800196A41F21112114208D1196A40F244426A
S31508003810114203D11A6822F001021A60204602F00A
S31508003820D1FD002084F8390084F8380010BD00BFA7
S31508003830F8B5069F90F83960F6B2022E00F0AA8015
S3150800384090F83960F6B2012E06D113B9002F40F070
S31508003850A380022480F8394015460E460446B2F580
S31508003860006F48D00AD8B2F5007F22D0B2F5806F33
S3150800387030D0B2F5807F40F0818009E0B2F5005F74
S315080038805BD0B2F5804F69D0B2F5805F76D143E060
S31508003890C2694249D163C2694149D16402684FEAA3
S315080038A0172EC06919464C320EF10103FDF798F937
S315080038B064E0026A3B49D163026A3949D164026805
S315080038C04FEA172E006A19464C320EF10103FDF72E
S315080038D087F953E0426A3349D163426A3049D16471
S315080038E002684FEA172E406A19464C320EF1010358
S315080038F0FDF776F942E0826A2A49D163826A284945
S31508003900D16402684FEA172E806A19464C320EF1C6
S315080039100103FDF765F931E0C26A2249D163C26A3B
S315080039201F49D16402684FEA172EC06A19464C32FD
S315080039300EF10103FDF754F920E0026B1A49D16331
S31508003940026B1749D16402684FEA172E006B1946B5
S315080039504C320EF10103FDF743F90FE0426B1349B0
S31508003960D163426B0E49D16402684FEA172E406B49
S3150800397019464C320EF10103FDF732F92368374335
S315080039809F642368DA681543DD60012384F83930BB
S315080039900020F8BD0220F8BD0120F8BDB53F00089B
S315080039A0E541000815400008E5620008D141000815
S315080039B038B505460C46B1F5006F20D009D8B1F5E3
S315080039C0007F14D0B1F5806F15D0B1F5807F25D171
S315080039D009E0B1F5005F1AD0B1F5804F1BD0B1F5FB
S315080039E0805F1BD10FE0C069FDF744F916E0006A55
S315080039F0FDF740F912E0406AFDF73CF90EE0806AEF
S31508003A00FDF738F90AE0C06AFDF734F906E0006BFD
S31508003A10FDF730F902E0406BFDF72CF92A68D36808
S31508003A2023EA0404D460002038BD00BFF8B5069F19
S31508003A3090F83960F6B2022E00F0AA8090F8396044
S31508003A40F6B2012E06D113B9002F40F0A380022446
S31508003A5080F8394015460E460446B2F5006F48D040
S31508003A600AD8B2F5007F22D0B2F5806F30D0B2F511
S31508003A70807F40F0818009E0B2F5005F5BD0B2F547
S31508003A80804F69D0B2F5805F76D143E0C26942497A
S31508003A90D163C2694149D16401684FEA172EC069EA
S31508003AA04C311A460EF10103FDF79AF864E0026AF2
S31508003AB03B49D163026A3949D16401684FEA172E36
S31508003AC0006A4C311A460EF10103FDF789F853E0F6
S31508003AD0426A3349D163426A3049D16401684FEA80
S31508003AE0172E406A4C311A460EF10103FDF778F895
S31508003AF042E0826A2A49D163826A2849D164016808
S31508003B004FEA172E806A4C311A460EF10103FDF76B
S31508003B1067F831E0C26A2249D163C26A1F49D16493
S31508003B2001684FEA172EC06A4C311A460EF1010396
S31508003B30FDF756F820E0026B1A49D163026B174964
S31508003B40D16401684FEA172E006B4C311A460EF104
S31508003B500103FDF745F80FE0426B1349D163426B49
S31508003B600E49D16401684FEA172E406B4C311A464C
S31508003B700EF10103FDF734F8236837439F64236881
S31508003B80DA681543DD60012384F839300020F8BD72
S31508003B900220F8BD0120F8BDB53F0008E541000840
S31508003BA0CD3F0008E5620008D141000838B5054652
S31508003BB00C46B1F5006F20D009D8B1F5007F14D0B6
S31508003BC0B1F5806F15D0B1F5807F25D109E0B1F543
S31508003BD0005F1AD0B1F5804F1BD0B1F5805F1BD1BD
S31508003BE00FE0C069FDF746F816E0006AFDF742F8EF
S31508003BF012E0406AFDF73EF80EE0806AFDF73AF8F3
S31508003C000AE0C06AFDF736F806E0006BFDF732F801
S31508003C1002E0406BFDF72EF82A68D36823EA04040D
S31508003C20D460002038BD00BF90F83830012B0CD086
S31508003C30022380F8393003685961012380F8393046
S31508003C40002380F83830184670470220704700BFB6
S31508003C5090F83830012B5FD070B4012380F83830E3
S31508003C60022380F839304B68012B0BD10668B468FB
S31508003C708D68CB681D4324F47F432B430C6943EAC4
S31508003C800423B3600C2A3FD8DFE802F0073E3E3E25
S31508003C90153E3E3E233E3E3E31000B682BB1026880
S31508003CA0936943F0800393612EE00268936923F0D9
S31508003CB08003936128E00B682BB10268936943F48B
S31508003CC00043936120E00268936923F400439361FB
S31508003CD01AE00B682BB10268D36943F08003D361FD
S31508003CE012E00268D36923F08003D3610CE00B6805
S31508003CF02BB10268D36943F40043D36104E0026838
S31508003D00D36923F40043D361012380F839300023B3
S31508003D1080F83830184601E00220704770BC7047BA
S31508003D2090F83830012B00F0D08070B4012380F869
S31508003D303830022380F839300268936823F47F43C9
S31508003D4023F0770393600B68402B7DD00ED8102B99
S31508003D5000F09C8003D8002B00F09080ADE0202B6B
S31508003D6000F09C80302B00F0A180A6E0702B12D0CA
S31508003D7004D8502B33D0602B4BD09EE0B3F5805F30
S31508003D8003D0B3F5005F18D097E00268936823F074
S31508003D900703936091E00568AA684C688B681C4322
S31508003DA022F47F432343CA6843EA0223AB600268CE
S31508003DB0936843F0770393607FE00568AA684C68C8
S31508003DC08B681C4322F47F432343CA6843EA0223D1
S31508003DD0AB600268936843F4804393606DE00368C0
S31508003DE04C68CE68196A1D6A25F001051D629A6934
S31508003DF022F0F00242EA061221F00A0121439A61F2
S31508003E0019620268936823F0700343F057039360BE
S31508003E1053E003684D68CE681C6A24F010041C62DF
S31508003E2099691A6A21F4704141EA063122F0A00222
S31508003E3042EA051299611A620268936823F07003D0
S31508003E4043F06703936038E003684C68CE68196AE4
S31508003E501D6A25F001051D629A6922F0F00242EA00
S31508003E60061221F00A0121439A61196202689368D1
S31508003E7023F0700343F0470393601EE002689368DB
S31508003E8023F0700343F00703936016E00268936813
S31508003E9023F0700343F0170393600EE002689368FB
S31508003EA023F0700343F02703936006E002689368E3
S31508003EB023F0700343F037039360012380F8393009
S31508003EC0002380F83830184601E00220704770BC9D
S31508003ED0704700BF0268536823F080031943516096
S31508003EE00020704738B590F83830012B18D00446B2
S31508003EF0012580F83850022380F83930FFF7DAFABE
S31508003F002268D36823F04003D3602268D36823F479
S31508003F108043D36084F83950002084F8380038BDCF
S31508003F20022038BD38B590F83830012B18D0044631
S31508003F30012580F83850022380F83930FFF7BAFA9D
S31508003F402268D36843F04003D3602268D36823F419
S31508003F508043D36084F83950002084F8380038BD8F
S31508003F60022038BD90F83830012B1FD0012380F885
S31508003F7038300C2914D8DFE801F0071313130A1395
S31508003F8013130D131313100003685B6B09E0036822
S31508003F909B6B06E00368DB6B03E003681B6C00E0C1
S31508003FA00023002280F83820184670470220704700
S31508003FB0704700BF08B5806B012380F83930FFF7DA
S31508003FC0F7FF08BD704700BF704700BF10B5846B88
S31508003FD0012384F83930236A834202D101232376E8
S31508003FE010E0636A834202D1022323760AE0A36AB9
S31508003FF0834202D10423237604E0E36A834204BFA2
S31508004000082323762046FFF7DFFF0023237610BD1B
S31508004010704700BF10B5846B012384F83930236AD2
S31508004020834202D10123237610E0636A834202D1D8
S31508004030022323760AE0A36A834202D10423237665
S3150800404004E0E36A834204BF082323762046FFF789
S31508004050DFFF0023237610BD704700BF10B5044666
S3150800406003681A6912F0020F17D0DA6812F0020F05
S3150800407013D06FF002021A610123037603689B6965
S3150800408013F0030F02D0FFF79FFF04E0FFF79AFF34
S315080040902046FFF7BDFF0023237623681A6912F02E
S315080040A0040F19D0DA6812F0040F15D06FF0040265
S315080040B01A610223237623689B6913F4407F03D091
S315080040C02046FFF781FF05E02046FFF77BFF2046E5
S315080040D0FFF79EFF0023237623681A6912F0080F5C
S315080040E019D0DA6812F0080F15D06FF008021A61B5
S315080040F0042323762368DB6913F0030F03D02046D5
S31508004100FFF762FF05E02046FFF75CFF2046FFF752
S315080041107FFF0023237623681A6912F0100F19D03F
S31508004120DA6812F0100F15D06FF010021A61082322
S3150800413023762368DB6913F4407F03D02046FFF714
S3150800414043FF05E02046FFF73DFF2046FFF760FFE7
S315080041500023237623681A6912F0010F09D0DA685A
S3150800416012F0010F05D06FF001021A612046FFF721
S315080041701FFF23681A6912F0800F09D0DA6812F057
S31508004180800F05D06FF080021A61204602F0B2F85F
S3150800419023681A6912F0400F09D0DA6812F0400F46
S315080041A005D06FF040021A612046FFF755FF2368D5
S315080041B01A6912F0200F09D0DA6812F0200F05D01C
S315080041C06FF020021A61204602F08AF810BD00BF7F
S315080041D008B5806B012380F83930FFF73DFF08BD2D
S315080041E0704700BF08B5806B012380F83930FFF7A8
S315080041F0F7FF08BD90F83900704700BF90F83900FE
S31508004200704700BF90F83900704700BF90F8390032
S31508004210704700BF90F83900704700BF90F8390022
S31508004220704700BF03682E4A904233D0B0F1804FE2
S3150800423035D0A2F57C42904243D002F58062904286
S315080042403AD002F5806290422ED0264A90420ED08D
S3150800425002F5806290420AD002F58062904213D13C
S3150800426034E00A691E4B1A6301234361704723F43D
S315080042704073CA68134303608B68C3620B68836222
S31508004280174B9842F0D1ECE703608B68C3620B6862
S315080042908362E9E723F070034A681343E7E723F0EC
S315080042A070034A681343E2E723F070034A6813432E
S315080042B00D4A9042DBD0C8E723F070034A681343DF
S315080042C0D5E723F070034A681343D0E723F4407315
S315080042D0CA68134303608B68C3620B688362C3E7CB
S315080042E00000014000400140000C0040C0B110B57C
S315080042F0044690F8393013F0FF0F04D1002380F8F4
S315080043003830FFF735F9022384F83930214651F859
S31508004310040BFFF787FF012384F83930002010BD0E
S3150800432001207047C0B110B5044690F8393013F033
S31508004330FF0F04D1002380F83830FFF7CFF90223A6
S3150800434084F83930214651F8040BFFF76BFF012337
S3150800435084F83930002010BD01207047C0B110B56F
S31508004360044690F8393013F0FF0F04D1002380F883
S315080043703830FFF7D5F9022384F83930214651F849
S31508004380040BFFF74FFF012384F83930002010BDD6
S3150800439001207047C0B110B5044690F8393013F0C3
S315080043A0FF0F04D1002380F83830FFF7DBF902232A
S315080043B084F83930214651F8040BFFF733FF0123FF
S315080043C084F83930002010BD0120704718B338B57D
S315080043D004460D4690F8393013F0FF0F04D1002338
S315080043E080F83830FFF7E0F9022384F8393021469F
S315080043F051F8040BFFF716FF2268136823F0080329
S3150800440013602268136845EA03011160012384F8E2
S315080044103930002038BD0120704700BF002848D039
S31508004420F8B505460C4690F8393013F0FF0F04D15D
S31508004430002380F8383001F093FF022385F83930DD
S315080044402A68936823F007039360294651F8040BFA
S31508004450FFF7E8FE286886688369016A22681643BA
S3150800446023F4407323F00303A26943EA0222A368F4
S31508004470134323F47C4323F0FC0327693F01E269D5
S3150800448047EA0227E2683A43276A42EA07321343B1
S3150800449021F0AA02616942EA011261680A4386604C
S315080044A029688B612B681A62012385F83930002048
S315080044B0F8BD0120704700BF70B4046A24F00104F7
S315080044C004628469056A164EB04212D0B0F1804F74
S315080044D00FD0A6F57C46B0420BD006F58066B042F2
S315080044E007D006F58066B04203D006F59A36B04284
S315080044F003D124F00304224303E024F0030242F02C
S31508004500010222F0F0021B01DBB2134325F00A0276
S3150800451001F00A0111438361016270BC704700BF54
S3150800452000000140F8B590F83830012B00F097806C
S315080045300D460446012380F83830022380F83930C6
S3150800454082B9006809686A68EB68FFF7B5FF2268F0
S31508004550936923F00C03936122689169AB680B4356
S31508004560936175E0042A26D101682E686F68EB68A6
S31508004570086A20F0100008628A69086A22F4407204
S3150800458042EA072222F470421B039BB2134320F02F
S31508004590A000320102F0A00202438B610A6222687F
S315080045A0936923F44063936122689369A96843EA8F
S315080045B0012393614CE0082A24D102680E684F68EB
S315080045C0CB68116A21F480711162D069116A20F0F2
S315080045D00300384320F0F0001B01DBB2034321F44B
S315080045E02060310201F420610143D361116222681F
S315080045F0D36923F00C03D3612268D169AB680B43F6
S31508004600D36125E001682E686F68EB68086A20F4B4
S3150800461080500862CA69086A22F4407242EA072290
S3150800462022F470421B039BB2134320F4204032034A
S3150800463002F420420243CB610A622268D36923F45A
S315080046404063D3612268D369A96843EA0123D36129
S31508004650012384F83930002084F83800F8BD022098
S31508004660F8BD00BF30B4036A23F010030362036A7F
S315080046704468826922F4E6420D6842EA052223F07C
S3150800468020038D6843EA05130C4DA8420ED123F08A
S315080046908003CD6843EA051323F0400324F44064FD
S315080046A04D6944EA85048D6944EA8504446082615B
S315080046B04A688263036230BC704700BF000001404D
S315080046C090F83830012B28D010B50446012380F81D
S315080046D03830022380F839300C2A17D8DFE802F080
S315080046E0071616160B1616160F161616130000685A
S315080046F0FEF766FE0AE00068FFF7B4FF06E000680A
S31508004700FEF788FE02E00068FEF7B0FE012384F893
S315080047103930002084F8380010BD0220704700BFE9
S3150800472038B590F83830012B66D00D46044601237B
S3150800473080F83830022380F839300C2A55D8DFE85B
S3150800474002F0075454541A5454542E5454544100E5
S315080047500068FEF735FE2268936943F00803936103
S315080047602268936923F004039361226891692B698F
S315080047700B43936139E00068FFF774FF2268936979
S3150800478043F4006393612268936923F48063936119
S3150800479022689369296943EA0123936125E0006841
S315080047A0FEF738FE2268D36943F00803D36122680E
S315080047B0D36923F00403D3612268D1692B690B43BB
S315080047C0D36112E00068FEF751FE2268D36943F40C
S315080047D00063D3612268D36923F48063D3612268B6
S315080047E0D369296943EA0123D361012384F839305F
S315080047F0002084F8380038BD022038BD9A4200F0FF
S315080048008880F0B589B090F83840012C00F0838094
S315080048101E460D460446012380F83830022380F8E8
S3150800482039300B6801934B6802938B680393CB6806
S3150800483004930B6906934B69079312B1042A05D0B2
S3150800484008E0006801A9FEF7BBFD03E0006801A9BE
S31508004850FFF708FF16B1042E20D053E02068A96997
S31508004860EA692B6AFFF728FE2268936923F00C038E
S3150800487093612268936823F07003936022689368B3
S3150800488043F0500393602268936823F0070393600C
S315080048902268936843F00603936033E02168AE69A3
S315080048A0EF692B6A086A20F0100008628A69086AAC
S315080048B022F4407242EA072222F470421B039BB29A
S315080048C0134320F0A000320102F0A00202438B61DC
S315080048D00A622268936923F44063936122689368A5
S315080048E023F0700393602268936843F06003936033
S315080048F02268936823F0070393602268936843F05D
S3150800490006039360012384F83930002084F83800C0
S3150800491002E001207047022009B0F0BD10B4046A15
S3150800492001238B4024EA03030362036A8A40134384
S3150800493003625DF8044B704710B50446006801220F
S31508004940FFF7ECFF2268074B9A4204D11A465B6CC4
S3150800495043F4004353642268136843F00103136069
S31508004960002010BD0000014010B504460068002272
S31508004970FFF7D4FF2268124B9A420FD11A6A41F206
S3150800498011131A420AD10E4B1A6A40F244431A42CC
S3150800499004D10B4A536C23F4004353642368196A01
S315080049A041F21112114208D1196A40F244421142E9
S315080049B003D11A6822F001021A60002010BD00BF58
S315080049C00000014010B504460C291FD8DFE801F0A5
S315080049D0071E1E1E0D1E1E1E131E1E1E1900026811
S315080049E0D36843F00203D36010E00268D36843F04B
S315080049F00403D3600AE00268D36843F00803D3606F
S31508004A0004E00268D36843F01003D36020680122EB
S31508004A10FFF784FF2268074B9A4204D11A465B6C5B
S31508004A2043F4004353642268136843F00103136098
S31508004A30002010BD0000014010B504460C291FD8FF
S31508004A40DFE801F0071E1E1E0D1E1E1E131E1E1E6B
S31508004A5019000268D36823F00203D36010E00268E5
S31508004A60D36823F00403D3600AE00268D36823F00E
S31508004A700803D36004E00268D36823F01003D36008
S31508004A8020680022FFF74AFF2268124B9A420FD18C
S31508004A901A6A41F211131A420AD10E4B1A6A40F2E7
S31508004AA044431A4204D10B4A536C23F4004353641B
S31508004AB02368196A41F21112114208D1196A40F2A3
S31508004AC04442114203D11A6822F001021A600020FA
S31508004AD010BD00BF0000014070B590F83950EDB226
S31508004AE0022D77D090F83940E4B2012C05D10AB9E5
S31508004AF0002B71D1022480F839400D4604460C2D4E
S31508004B0053D8DFE805F0075252521A5252522D5224
S31508004B1052524000016A3148C863216A3048C86465
S31508004B202668206A114606F13402FCF759F822680D
S31508004B30D36843F40073D36037E0416A2748C863F3
S31508004B40616A2748C8642668606A114606F1380211
S31508004B50FCF746F82268D36843F48063D36024E000
S31508004B60816A1E48C863A16A1D48C8642668A06A87
S31508004B70114606F13C02FCF733F82268D36843F481
S31508004B800063D36011E0C16A1448C863E16A144837
S31508004B90C8642668E06A114606F14002FCF720F868
S31508004BA02268D36843F48053D360206829460122DB
S31508004BB0FFF7B4FE22680B4B9A4204D11A465B6C87
S31508004BC043F4004353642268136843F001031360F7
S31508004BD0002070BD022070BD012070BD1540000880
S31508004BE0E54100080000014010B504460C291FD80D
S31508004BF0DFE801F0071E1E1E0D1E1E1E131E1E1EBA
S31508004C0019000268D36823F40073D36010E00268C1
S31508004C10D36823F48063D3600AE00268D36823F478
S31508004C200063D36004E00268D36823F48053D3603A
S31508004C3020680022FFF772FE2268134B9A420FD1B2
S31508004C401A6A41F211131A420AD10F4B1A6A40F234
S31508004C5044431A4204D10C4A536C23F40043536468
S31508004C602368196A41F21112114208D1196A40F2F1
S31508004C704442114203D11A6822F001021A60012344
S31508004C8084F83930002010BD0000014010B50446F4
S31508004C9000680122FFF742FE2268074B9A4204D1B8
S31508004CA01A465B6C43F4004353642268136843F066
S31508004CB001031360002010BD0000014010B5044632
S31508004CC000680022FFF72AFE2268134B9A420FD18A
S31508004CD01A6A41F211131A420AD10F4B1A6A40F2A4
S31508004CE044431A4204D10C4A536C23F400435364D8
S31508004CF02368196A41F21112114208D1196A40F261
S31508004D004442114203D11A6822F001021A600123B3
S31508004D1084F83930002010BD0000014010B5044663
S31508004D200C291FD8DFE801F0071E1E1E0D1E1E1EC9
S31508004D30131E1E1E19000268D36843F00203D360CF
S31508004D4010E00268D36843F00403D3600AE00268FF
S31508004D50D36843F00803D36004E00268D36843F0DD
S31508004D601003D36020680122FFF7D8FD2268074B9D
S31508004D709A4204D11A465B6C43F400435364226892
S31508004D80136843F001031360002010BD00000140C2
S31508004D9010B504460C291FD8DFE801F0071E1E1EB1
S31508004DA00D1E1E1E131E1E1E19000268D36823F050
S31508004DB00203D36010E00268D36823F00403D360CB
S31508004DC00AE00268D36823F00803D36004E00268A7
S31508004DD0D36823F01003D36020680022FFF79EFDF6
S31508004DE02268124B9A420FD11A6A41F211131A42DB
S31508004DF00AD10E4B1A6A40F244431A4204D10B4AAE
S31508004E00536C23F4004353642368196A41F2111260
S31508004E10114208D1196A40F24442114203D11A6874
S31508004E2022F001021A60002010BD00BF00000140F8
S31508004E3070B590F83950EDB2022D77D090F8394018
S31508004E40E4B2012C05D10AB9002B71D1022480F8ED
S31508004E5039400D4604460C2D53D8DFE805F00752B5
S31508004E6052521A5252522D5252524000016A314839
S31508004E70C863216A3048C8642668206A114606F164
S31508004E803402FBF7ADFE2268D36843F40073D3609F
S31508004E9037E0416A2748C863616A2748C8642668B4
S31508004EA0606A114606F13802FBF79AFE2268D36853
S31508004EB043F48063D36024E0816A1E48C863A16A0C
S31508004EC01D48C8642668A06A114606F13C02FBF72D
S31508004ED087FE2268D36843F40063D36011E0C16A91
S31508004EE01448C863E16A1448C8642668E06A11462B
S31508004EF006F14002FBF774FE2268D36843F4805338
S31508004F00D360206829460122FFF708FD22680B4B6B
S31508004F109A4204D11A465B6C43F4004353642268F0
S31508004F20136843F001031360002070BD022070BDB2
S31508004F30012070BD15400008E54100080000014049
S31508004F4010B504460C291FD8DFE801F0071E1E1EFF
S31508004F500D1E1E1E131E1E1E19000268D36823F49A
S31508004F600073D36010E00268D36823F48063D360CB
S31508004F700AE00268D36823F40063D36004E0026899
S31508004F80D36823F48053D36020680022FFF7C6FC59
S31508004F902268134B9A420FD11A6A41F211131A4228
S31508004FA00AD10F4B1A6A40F244431A4204D10C4AFA
S31508004FB0536C23F4004353642368196A41F21112AF
S31508004FC0114208D1196A40F24442114203D11A68C3
S31508004FD022F001021A60012384F83930002010BD3E
S31508004FE00000014010B5044600680122FFF796FC50
S31508004FF02268136843F001031360002010BD00BF48
S3150800500010B5044600680022FFF788FC2368196A71
S3150800501041F21112114208D1196A40F24442114272
S3150800502003D11A6822F001021A60002010BD00BFE1
S3150800503010B504460C291FD8DFE801F0071E1E1E0E
S315080050400D1E1E1E131E1E1E19000268D36843F08D
S315080050500203D36010E00268D36843F00403D36008
S315080050600AE00268D36843F00803D36004E00268E4
S31508005070D36843F01003D36020680122FFF74EFC83
S315080050802268136843F001031360002010BD00BFB7
S3150800509010B504460C291FD8DFE801F0071E1E1EAE
S315080050A00D1E1E1E131E1E1E19000268D36823F04D
S315080050B00203D36010E00268D36823F00403D360C8
S315080050C00AE00268D36823F00803D36004E00268A4
S315080050D0D36823F01003D36020680022FFF71EFC74
S315080050E02368196A41F21112114208D1196A40F26D
S315080050F04442114203D11A6822F001021A600020C4
S3150800510010BD00BF38B590F83950EDB2022D66D003
S3150800511090F83940E4B2012C05D10AB9002B60D1C8
S31508005120022480F839400D4604460C2D4BD8DFE89A
S3150800513005F0074A4A4A184A4A4A294A4A4A3A0050
S31508005140016A2948C863216A2848C8642168206A10
S315080051503431FBF745FD2268D36843F40073D36006
S3150800516031E0416A2048C863616A2048C8642168FA
S31508005170606A3831FBF734FD2268D36843F48063EC
S31508005180D36020E0816A1848C863A16A1748C864D2
S315080051902168A06A3C31FBF723FD2268D36843F4F3
S315080051A00063D3600FE0C16A0F48C863E16A0F481D
S315080051B0C8642168E06A4031FBF712FD2268D368AB
S315080051C043F48053D360206829460122FFF7A6FBE3
S315080051D02268136843F001031360002038BD0220DB
S315080051E038BD012038BD00BFCD3F0008E5410008A5
S315080051F010B504460C291FD8DFE801F0071E1E1E4D
S315080052000D1E1E1E131E1E1E19000268D36823F4E7
S315080052100073D36010E00268D36823F48063D36018
S315080052200AE00268D36823F40063D36004E00268E6
S31508005230D36823F48053D36020680022FFF76EFBFF
S315080052402368196A41F21112114208D1196A40F20B
S315080052504442114203D11A6822F001021A6001235E
S3150800526084F83930002010BD10B5044600680021C6
S315080052700122FFF753FB206804210122FFF74EFBAA
S315080052802268054B9A4204D11A465B6C43F40043E4
S315080052905364002010BD00BF0000014010B504464D
S315080052A0006800210A46FFF739FB2068042100221E
S315080052B0FFF734FB2268124B9A420FD11A6A41F261
S315080052C011131A420AD10E4B1A6A40F244431A4283
S315080052D004D10B4A536C23F4004353642368196AB8
S315080052E041F21112114208D1196A40F244421142A0
S315080052F003D11A6822F001021A60002010BD00BF0F
S315080053000000014010B504460268D36843F0020362
S31508005310D3600268D36843F00403D36000680021B1
S315080053200122FFF7FBFA206804210122FFF7F6FAAB
S315080053302268054B9A4204D11A465B6C43F4004333
S315080053405364002010BD00BF0000014010B504469C
S315080053500268D36823F00203D3600268D36823F097
S315080053600403D360006800210A46FFF7D7FA2068CD
S3150800537004210022FFF7D2FA2268124B9A420FD173
S315080053801A6A41F211131A420AD10E4B1A6A40F2EE
S3150800539044431A4204D10B4A536C23F40043536422
S315080053A02368196A41F21112114208D1196A40F2AA
S315080053B04442114203D11A6822F001021A60002001
S315080053C010BD00BF0000014010B5044611B1042904
S315080053D006D00BE0006800210122FFF79FFA0FE0D4
S315080053E0006804210122FFF799FA09E00068002104
S315080053F00122FFF793FA206804210122FFF78EFAAB
S315080054002268136843F001031360002010BD00BF33
S3150800541010B5044611B1042906D00BE00068002136
S315080054200A46FFF77BFA0FE0006804210022FFF71F
S3150800543075FA09E0006800210A46FFF76FFA206846
S3150800544004210022FFF76AFA2368196A41F2111249
S31508005450114208D1196A40F24442114203D11A682E
S3150800546022F001021A60002010BD00BF10B50446E4
S3150800547011B104290BD015E0006800210122FFF7BD
S315080054804DFA2268D36843F00203D3601EE0006831
S3150800549004210122FFF742FA2268D36843F0040385
S315080054A0D36013E0006800210122FFF737FA20686D
S315080054B004210122FFF732FA2268D36843F0020377
S315080054C0D3602268D36843F00403D3602268136864
S315080054D043F001031360002010BD00BF10B5044659
S315080054E049B900680A46FFF719FA2268D36823F013
